{
  "address": "0x8f8E05C297790a3b862BC36FC5Dd7A1f5f928d5E",
  "abi": [
    {
      "anonymous": false,
      "inputs": [
        {
          "indexed": false,
          "internalType": "address",
          "name": "asset",
          "type": "address"
        },
        {
          "indexed": false,
          "internalType": "address",
          "name": "oracle",
          "type": "address"
        }
      ],
      "name": "ExpiredPrice",
      "type": "event"
    },
    {
      "anonymous": false,
      "inputs": [
        {
          "indexed": false,
          "internalType": "uint112",
          "name": "price",
          "type": "uint112"
        }
      ],
      "name": "Price",
      "type": "event"
    },
    {
      "anonymous": false,
      "inputs": [
        {
          "indexed": false,
          "internalType": "address",
          "name": "asset",
          "type": "address"
        },
        {
          "indexed": false,
          "internalType": "uint256",
          "name": "previousPriceMantissa",
          "type": "uint256"
        },
        {
          "indexed": false,
          "internalType": "uint256",
          "name": "requestedPriceMantissa",
          "type": "uint256"
        },
        {
          "indexed": false,
          "internalType": "uint256",
          "name": "newPriceMantissa",
          "type": "uint256"
        }
      ],
      "name": "PricePosted",
      "type": "event"
    },
    {
      "inputs": [
        {
          "internalType": "address",
          "name": "asset",
          "type": "address"
        }
      ],
      "name": "assetPrices",
      "outputs": [
        {
          "internalType": "uint256",
          "name": "",
          "type": "uint256"
        }
      ],
      "stateMutability": "view",
      "type": "function"
    },
    {
      "inputs": [
        {
          "internalType": "address",
          "name": "token",
          "type": "address"
        },
        {
          "internalType": "uint256",
          "name": "maxAge",
          "type": "uint256"
        }
      ],
      "name": "getOraclePrice",
      "outputs": [
        {
          "internalType": "uint256",
          "name": "",
          "type": "uint256"
        }
      ],
      "stateMutability": "nonpayable",
      "type": "function"
    },
    {
      "inputs": [
        {
          "internalType": "address",
          "name": "token",
          "type": "address"
        },
        {
          "internalType": "uint256",
          "name": "maxAge",
          "type": "uint256"
        }
      ],
      "name": "getPrice",
      "outputs": [
        {
          "internalType": "uint256",
          "name": "",
          "type": "uint256"
        }
      ],
      "stateMutability": "nonpayable",
      "type": "function"
    },
    {
      "inputs": [
        {
          "internalType": "address",
          "name": "cToken",
          "type": "address"
        }
      ],
      "name": "getUnderlyingPrice",
      "outputs": [
        {
          "internalType": "uint256",
          "name": "",
          "type": "uint256"
        }
      ],
      "stateMutability": "view",
      "type": "function"
    },
    {
      "inputs": [
        {
          "internalType": "address",
          "name": "asset",
          "type": "address"
        },
        {
          "internalType": "uint256",
          "name": "price",
          "type": "uint256"
        }
      ],
      "name": "setDirectPrice",
      "outputs": [],
      "stateMutability": "nonpayable",
      "type": "function"
    },
    {
      "inputs": [
        {
          "internalType": "address",
          "name": "addr",
          "type": "address"
        }
      ],
      "name": "setOracleAddress",
      "outputs": [],
      "stateMutability": "nonpayable",
      "type": "function"
    },
    {
      "inputs": [
        {
          "internalType": "address",
          "name": "cToken",
          "type": "address"
        },
        {
          "internalType": "uint256",
          "name": "underlyingPriceMantissa",
          "type": "uint256"
        }
      ],
      "name": "setUnderlyingPrice",
      "outputs": [],
      "stateMutability": "nonpayable",
      "type": "function"
    }
  ],
  "transactionHash": "0x0009615b1b8d6fe36956e57284d907b7615e19d47821e8555ffba55b3f74ee9c",
  "args": [],
  "solcInputHash": "b692f6ae76bd29563419347dc1053043",
  "bytecode": "0x6080604052600180546001600160a01b0319167351d3d22965bb2cb2749f896b82756ebad7812b6d17905534801561003657600080fd5b50610774806100466000396000f3fe608060405234801561001057600080fd5b506004361061007d5760003560e01c8063449e815d1161005b578063449e815d146101415780634c69c00f1461017a5780635e9a523c146101ad578063fc57d4df146101e05761007d565b806309a8acb014610082578063127ffda0146100bd5780631a203c4f146100f6575b600080fd5b6100bb6004803603604081101561009857600080fd5b5073ffffffffffffffffffffffffffffffffffffffff8135169060200135610213565b005b6100bb600480360360408110156100d357600080fd5b5073ffffffffffffffffffffffffffffffffffffffff81351690602001356102a5565b61012f6004803603604081101561010c57600080fd5b5073ffffffffffffffffffffffffffffffffffffffff81351690602001356103ae565b60408051918252519081900360200190f35b61012f6004803603604081101561015757600080fd5b5073ffffffffffffffffffffffffffffffffffffffff8135169060200135610477565b6100bb6004803603602081101561019057600080fd5b503573ffffffffffffffffffffffffffffffffffffffff16610539565b61012f600480360360208110156101c357600080fd5b503573ffffffffffffffffffffffffffffffffffffffff16610580565b61012f600480360360208110156101f657600080fd5b503573ffffffffffffffffffffffffffffffffffffffff166105a8565b73ffffffffffffffffffffffffffffffffffffffff8216600081815260208181526040918290205482519384529083015281810183905260608201839052517fdd71a1d19fcba687442a1d5c58578f1e409af71a79d10fd95a4d66efd8fa9ae79181900360800190a173ffffffffffffffffffffffffffffffffffffffff909116600090815260208190526040902055565b60008273ffffffffffffffffffffffffffffffffffffffff16636f307dc36040518163ffffffff1660e01b815260040160206040518083038186803b1580156102ed57600080fd5b505afa158015610301573d6000803e3d6000fd5b505050506040513d602081101561031757600080fd5b505173ffffffffffffffffffffffffffffffffffffffff8116600081815260208181526040918290205482519384529083015281810185905260608201859052519192507fdd71a1d19fcba687442a1d5c58578f1e409af71a79d10fd95a4d66efd8fa9ae7919081900360800190a173ffffffffffffffffffffffffffffffffffffffff1660009081526020819052604090205550565b600154604080517f3ddac95300000000000000000000000000000000000000000000000000000000815273ffffffffffffffffffffffffffffffffffffffff85811660048301526024820185905291516000938493849384939190921691633ddac953916044808301926060929190829003018186803b15801561043157600080fd5b505afa158015610445573d6000803e3d6000fd5b505050506040513d606081101561045b57600080fd5b50516dffffffffffffffffffffffffffff169695505050505050565b600154604080517f57611cac00000000000000000000000000000000000000000000000000000000815273ffffffffffffffffffffffffffffffffffffffff85811660048301526000602483018190529251929384939116916357611cac916044808301926020929190829003018186803b1580156104f557600080fd5b505afa158015610509573d6000803e3d6000fd5b505050506040513d602081101561051f57600080fd5b50516dffffffffffffffffffffffffffff16949350505050565b600180547fffffffffffffffffffffffff00000000000000000000000000000000000000001673ffffffffffffffffffffffffffffffffffffffff92909216919091179055565b73ffffffffffffffffffffffffffffffffffffffff1660009081526020819052604090205490565b6000808273ffffffffffffffffffffffffffffffffffffffff16636f307dc36040518163ffffffff1660e01b815260040160206040518083038186803b1580156105f157600080fd5b505afa158015610605573d6000803e3d6000fd5b505050506040513d602081101561061b57600080fd5b5051600154604080517f57611cac00000000000000000000000000000000000000000000000000000000815273ffffffffffffffffffffffffffffffffffffffff8085166004830152611c206024830152915193945060009391909216916357611cac916044808301926020929190829003018186803b15801561069e57600080fd5b505afa9250505080156106c357506040513d60208110156106be57600080fd5b505160015b610724573d8080156106f1576040519150601f19603f3d011682016040523d82523d6000602084013e6106f6565b606091505b50505073ffffffffffffffffffffffffffffffffffffffff8116600090815260208190526040902054610737565b6dffffffffffffffffffffffffffff1690505b939250505056fea26469706673582212207bde640714d8c7a211762898dafeee3bed680115d75c2387d72a3c4fd194ae8c64736f6c63430006000033",
  "devdoc": {
    "methods": {}
  },
  "userdoc": {
    "methods": {}
  },
  "storageLayout": {
    "storage": [
      {
        "astId": 46,
        "contract": "contracts/PriceOracle/AdrastiaPriceOracle.sol:AdrastiaPriceOracle",
        "label": "backupPrices",
        "offset": 0,
        "slot": "0",
        "type": "t_mapping(t_address,t_uint256)"
      },
      {
        "astId": 69,
        "contract": "contracts/PriceOracle/AdrastiaPriceOracle.sol:AdrastiaPriceOracle",
        "label": "oracle",
        "offset": 0,
        "slot": "1",
        "type": "t_address"
      }
    ],
    "types": {
      "t_address": {
        "encoding": "inplace",
        "label": "address",
        "numberOfBytes": "20"
      },
      "t_mapping(t_address,t_uint256)": {
        "encoding": "mapping",
        "key": "t_address",
        "label": "mapping(address => uint256)",
        "numberOfBytes": "32",
        "value": "t_uint256"
      },
      "t_uint256": {
        "encoding": "inplace",
        "label": "uint256",
        "numberOfBytes": "32"
      }
    }
  }
}