{
  "address": "0x97aa69E89865d672233F250dBDCbd354a23def61",
  "abi": [
    {
      "anonymous": false,
      "inputs": [
        {
          "indexed": false,
          "internalType": "address",
          "name": "asset",
          "type": "address"
        },
        {
          "indexed": false,
          "internalType": "address",
          "name": "oracle",
          "type": "address"
        }
      ],
      "name": "ExpiredPrice",
      "type": "event"
    },
    {
      "anonymous": false,
      "inputs": [
        {
          "indexed": false,
          "internalType": "uint112",
          "name": "price",
          "type": "uint112"
        }
      ],
      "name": "Price",
      "type": "event"
    },
    {
      "anonymous": false,
      "inputs": [
        {
          "indexed": false,
          "internalType": "address",
          "name": "asset",
          "type": "address"
        },
        {
          "indexed": false,
          "internalType": "uint256",
          "name": "previousPriceMantissa",
          "type": "uint256"
        },
        {
          "indexed": false,
          "internalType": "uint256",
          "name": "requestedPriceMantissa",
          "type": "uint256"
        },
        {
          "indexed": false,
          "internalType": "uint256",
          "name": "newPriceMantissa",
          "type": "uint256"
        }
      ],
      "name": "PricePosted",
      "type": "event"
    },
    {
      "inputs": [
        {
          "internalType": "address",
          "name": "asset",
          "type": "address"
        }
      ],
      "name": "assetPrices",
      "outputs": [
        {
          "internalType": "uint256",
          "name": "",
          "type": "uint256"
        }
      ],
      "stateMutability": "view",
      "type": "function"
    },
    {
      "inputs": [
        {
          "internalType": "address",
          "name": "token",
          "type": "address"
        }
      ],
      "name": "getPrice",
      "outputs": [
        {
          "internalType": "uint256",
          "name": "",
          "type": "uint256"
        }
      ],
      "stateMutability": "nonpayable",
      "type": "function"
    },
    {
      "inputs": [
        {
          "internalType": "address",
          "name": "cToken",
          "type": "address"
        }
      ],
      "name": "getUnderlyingPrice",
      "outputs": [
        {
          "internalType": "uint256",
          "name": "",
          "type": "uint256"
        }
      ],
      "stateMutability": "view",
      "type": "function"
    },
    {
      "inputs": [
        {
          "internalType": "address",
          "name": "asset",
          "type": "address"
        },
        {
          "internalType": "uint256",
          "name": "price",
          "type": "uint256"
        }
      ],
      "name": "setDirectPrice",
      "outputs": [],
      "stateMutability": "nonpayable",
      "type": "function"
    },
    {
      "inputs": [
        {
          "internalType": "address",
          "name": "addr",
          "type": "address"
        }
      ],
      "name": "setOracleAddress",
      "outputs": [],
      "stateMutability": "nonpayable",
      "type": "function"
    },
    {
      "inputs": [
        {
          "internalType": "address",
          "name": "cToken",
          "type": "address"
        },
        {
          "internalType": "uint256",
          "name": "underlyingPriceMantissa",
          "type": "uint256"
        }
      ],
      "name": "setUnderlyingPrice",
      "outputs": [],
      "stateMutability": "nonpayable",
      "type": "function"
    }
  ],
  "transactionHash": "0x18cadc9a98fee777de8a3e3244af48f9c1c6aee84a13f2b39dbfe55442b88c8f",
  "args": [],
  "solcInputHash": "caaf0ce438111621eddd36732a76b6e1",
  "bytecode": "0x6080604052600180546001600160a01b0319167351d3d22965bb2cb2749f896b82756ebad7812b6d17905534801561003657600080fd5b506106e4806100466000396000f3fe608060405234801561001057600080fd5b50600436106100725760003560e01c80634c69c00f116100505780634c69c00f146101305780635e9a523c14610163578063fc57d4df1461019657610072565b806309a8acb014610077578063127ffda0146100b257806341976e09146100eb575b600080fd5b6100b06004803603604081101561008d57600080fd5b5073ffffffffffffffffffffffffffffffffffffffff81351690602001356101c9565b005b6100b0600480360360408110156100c857600080fd5b5073ffffffffffffffffffffffffffffffffffffffff813516906020013561025b565b61011e6004803603602081101561010157600080fd5b503573ffffffffffffffffffffffffffffffffffffffff16610364565b60408051918252519081900360200190f35b6100b06004803603602081101561014657600080fd5b503573ffffffffffffffffffffffffffffffffffffffff1661042c565b61011e6004803603602081101561017957600080fd5b503573ffffffffffffffffffffffffffffffffffffffff16610473565b61011e600480360360208110156101ac57600080fd5b503573ffffffffffffffffffffffffffffffffffffffff1661049b565b73ffffffffffffffffffffffffffffffffffffffff8216600081815260208181526040918290205482519384529083015281810183905260608201839052517fdd71a1d19fcba687442a1d5c58578f1e409af71a79d10fd95a4d66efd8fa9ae79181900360800190a173ffffffffffffffffffffffffffffffffffffffff909116600090815260208190526040902055565b60008273ffffffffffffffffffffffffffffffffffffffff16636f307dc36040518163ffffffff1660e01b815260040160206040518083038186803b1580156102a357600080fd5b505afa1580156102b7573d6000803e3d6000fd5b505050506040513d60208110156102cd57600080fd5b505173ffffffffffffffffffffffffffffffffffffffff8116600081815260208181526040918290205482519384529083015281810185905260608201859052519192507fdd71a1d19fcba687442a1d5c58578f1e409af71a79d10fd95a4d66efd8fa9ae7919081900360800190a173ffffffffffffffffffffffffffffffffffffffff1660009081526020819052604090205550565b600154604080517f57611cac00000000000000000000000000000000000000000000000000000000815273ffffffffffffffffffffffffffffffffffffffff848116600483015260006024830181905292519293849384938493909216916357611cac916044808301926060929190829003018186803b1580156103e757600080fd5b505afa1580156103fb573d6000803e3d6000fd5b505050506040513d606081101561041157600080fd5b50516dffffffffffffffffffffffffffff1695945050505050565b600180547fffffffffffffffffffffffff00000000000000000000000000000000000000001673ffffffffffffffffffffffffffffffffffffffff92909216919091179055565b73ffffffffffffffffffffffffffffffffffffffff1660009081526020819052604090205490565b6000808273ffffffffffffffffffffffffffffffffffffffff16636f307dc36040518163ffffffff1660e01b815260040160206040518083038186803b1580156104e457600080fd5b505afa1580156104f8573d6000803e3d6000fd5b505050506040513d602081101561050e57600080fd5b5051600154604080517f57611cac00000000000000000000000000000000000000000000000000000000815273ffffffffffffffffffffffffffffffffffffffff8085166004830152611c206024830152915193945060009391909216916357611cac916044808301926060929190829003018186803b15801561059157600080fd5b505afa9250505080156105c557506040513d60608110156105b157600080fd5b508051602082015160409092015190919060015b610626573d8080156105f3576040519150601f19603f3d011682016040523d82523d6000602084013e6105f8565b606091505b50505073ffffffffffffffffffffffffffffffffffffffff811660009081526020819052604090205461063b565b50506dffffffffffffffffffffffffffff1690505b806106a757604080517f08c379a000000000000000000000000000000000000000000000000000000000815260206004820152600d60248201527f4d495353494e475f505249434500000000000000000000000000000000000000604482015290519081900360640190fd5b939250505056fea26469706673582212200e4a9c96612849d361ded276cc10277deb121a58910811095f950905910e114964736f6c63430006000033",
  "devdoc": {
    "methods": {}
  },
  "userdoc": {
    "methods": {}
  },
  "storageLayout": {
    "storage": [
      {
        "astId": 25,
        "contract": "contracts/PriceOracle/AdrastiaPriceOracle.sol:AdrastiaPriceOracle",
        "label": "backupPrices",
        "offset": 0,
        "slot": "0",
        "type": "t_mapping(t_address,t_uint256)"
      },
      {
        "astId": 50,
        "contract": "contracts/PriceOracle/AdrastiaPriceOracle.sol:AdrastiaPriceOracle",
        "label": "oracle",
        "offset": 0,
        "slot": "1",
        "type": "t_contract(IOracle)15"
      }
    ],
    "types": {
      "t_address": {
        "encoding": "inplace",
        "label": "address",
        "numberOfBytes": "20"
      },
      "t_contract(IOracle)15": {
        "encoding": "inplace",
        "label": "contract IOracle",
        "numberOfBytes": "20"
      },
      "t_mapping(t_address,t_uint256)": {
        "encoding": "mapping",
        "key": "t_address",
        "label": "mapping(address => uint256)",
        "numberOfBytes": "32",
        "value": "t_uint256"
      },
      "t_uint256": {
        "encoding": "inplace",
        "label": "uint256",
        "numberOfBytes": "32"
      }
    }
  }
}