{
  "address": "0x7E3A5F8473b78F3425f0d9aBa0D9cDc69517bCCD",
  "abi": [
    {
      "anonymous": false,
      "inputs": [
        {
          "indexed": false,
          "internalType": "address",
          "name": "asset",
          "type": "address"
        },
        {
          "indexed": false,
          "internalType": "address",
          "name": "oracle",
          "type": "address"
        }
      ],
      "name": "ExpiredPrice",
      "type": "event"
    },
    {
      "anonymous": false,
      "inputs": [
        {
          "indexed": true,
          "internalType": "address",
          "name": "previousOwner",
          "type": "address"
        },
        {
          "indexed": true,
          "internalType": "address",
          "name": "newOwner",
          "type": "address"
        }
      ],
      "name": "OwnershipTransferred",
      "type": "event"
    },
    {
      "anonymous": false,
      "inputs": [
        {
          "indexed": false,
          "internalType": "uint112",
          "name": "price",
          "type": "uint112"
        }
      ],
      "name": "Price",
      "type": "event"
    },
    {
      "anonymous": false,
      "inputs": [
        {
          "indexed": false,
          "internalType": "address",
          "name": "asset",
          "type": "address"
        },
        {
          "indexed": false,
          "internalType": "uint256",
          "name": "previousPriceMantissa",
          "type": "uint256"
        },
        {
          "indexed": false,
          "internalType": "uint256",
          "name": "requestedPriceMantissa",
          "type": "uint256"
        },
        {
          "indexed": false,
          "internalType": "uint256",
          "name": "newPriceMantissa",
          "type": "uint256"
        }
      ],
      "name": "PricePosted",
      "type": "event"
    },
    {
      "inputs": [],
      "name": "WEVMOS",
      "outputs": [
        {
          "internalType": "address",
          "name": "",
          "type": "address"
        }
      ],
      "stateMutability": "view",
      "type": "function"
    },
    {
      "inputs": [],
      "name": "aggregatedOracle",
      "outputs": [
        {
          "internalType": "address",
          "name": "",
          "type": "address"
        }
      ],
      "stateMutability": "view",
      "type": "function"
    },
    {
      "inputs": [
        {
          "internalType": "address",
          "name": "cToken",
          "type": "address"
        }
      ],
      "name": "getUnderlyingPrice",
      "outputs": [
        {
          "internalType": "uint256",
          "name": "",
          "type": "uint256"
        }
      ],
      "stateMutability": "view",
      "type": "function"
    },
    {
      "inputs": [],
      "name": "owner",
      "outputs": [
        {
          "internalType": "address",
          "name": "",
          "type": "address"
        }
      ],
      "stateMutability": "view",
      "type": "function"
    },
    {
      "inputs": [],
      "name": "renounceOwnership",
      "outputs": [],
      "stateMutability": "nonpayable",
      "type": "function"
    },
    {
      "inputs": [
        {
          "internalType": "address",
          "name": "asset",
          "type": "address"
        },
        {
          "internalType": "uint256",
          "name": "price",
          "type": "uint256"
        }
      ],
      "name": "setDirectPrice",
      "outputs": [],
      "stateMutability": "nonpayable",
      "type": "function"
    },
    {
      "inputs": [
        {
          "internalType": "address",
          "name": "aggregated",
          "type": "address"
        },
        {
          "internalType": "address",
          "name": "usdPeggedAggregated",
          "type": "address"
        }
      ],
      "name": "setOracleAddress",
      "outputs": [],
      "stateMutability": "nonpayable",
      "type": "function"
    },
    {
      "inputs": [
        {
          "internalType": "address",
          "name": "cToken",
          "type": "address"
        },
        {
          "internalType": "uint256",
          "name": "price",
          "type": "uint256"
        }
      ],
      "name": "setUnderlyingPrice",
      "outputs": [],
      "stateMutability": "nonpayable",
      "type": "function"
    },
    {
      "inputs": [
        {
          "internalType": "address",
          "name": "wevmos",
          "type": "address"
        }
      ],
      "name": "setWEVMOSAddress",
      "outputs": [],
      "stateMutability": "nonpayable",
      "type": "function"
    },
    {
      "inputs": [
        {
          "internalType": "address",
          "name": "newOwner",
          "type": "address"
        }
      ],
      "name": "transferOwnership",
      "outputs": [],
      "stateMutability": "nonpayable",
      "type": "function"
    },
    {
      "inputs": [],
      "name": "usdPeggedAggregatedOracle",
      "outputs": [
        {
          "internalType": "address",
          "name": "",
          "type": "address"
        }
      ],
      "stateMutability": "view",
      "type": "function"
    }
  ],
  "transactionHash": "0x0e191cb53038225a6aa25f9474645c81f52d624319bd1750839c389892106f53",
  "args": [],
  "solcInputHash": "fc9ff8734c912eb95870d5a0cfb4a99c",
  "bytecode": "0x6080604052600280546001600160a01b03199081167351d3d22965bb2cb2749f896b82756ebad7812b6d1790915560038054821673d850f64eda6a62d625209711510f43cd49ef87981790556004805490911673d4949664cd82660aae99bedc034a0dea8a0bd51717905534801561007657600080fd5b5061008761008261008c565b610090565b6100e0565b3390565b600080546001600160a01b038381166001600160a01b0319831681178455604051919092169283917f8be0079c531659141344cd1fd0a4f28419497f9722a3daafe3b4186f6b6457e09190a35050565b610c44806100ef6000396000f3fe608060405234801561001057600080fd5b50600436106100995760003560e01c806309a8acb01461009e578063127ffda0146100b357806346093b0e146100c657806357d6df05146100d9578063715018a6146100ec5780637cf5b4fc146100f45780638da5cb5b14610112578063af3721461461011a578063bb75f12d14610122578063f2fde38b1461012a578063fc57d4df1461013d575b600080fd5b6100b16100ac36600461089a565b61015d565b005b6100b16100c136600461089a565b6101c6565b6100b16100d4366004610862565b6102a3565b6100b16100e7366004610823565b61032e565b6100b1610358565b6100fc61036c565b604051610109919061090d565b60405180910390f35b6100fc61037b565b6100fc61038a565b6100fc610399565b6100b1610138366004610823565b6103a8565b61015061014b366004610823565b6103e2565b6040516101099190610a41565b610165610790565b6001600160a01b03821660009081526001602052604090819020549051600080516020610bef833981519152916101a2918591908590819061093a565b60405180910390a16001600160a01b03909116600090815260016020526040902055565b6101ce610790565b6000826001600160a01b0316636f307dc36040518163ffffffff1660e01b815260040160206040518083038186803b15801561020957600080fd5b505afa15801561021d573d6000803e3d6000fd5b505050506040513d601f19601f820116820180604052508101906102419190610846565b6001600160a01b03811660009081526001602052604090819020549051919250600080516020610bef833981519152916102809184918690819061093a565b60405180910390a16001600160a01b031660009081526001602052604090205550565b6102ab610790565b6001600160a01b0382166102da5760405162461bcd60e51b81526004016102d190610a10565b60405180910390fd5b6001600160a01b0381166103005760405162461bcd60e51b81526004016102d1906109a6565b600280546001600160a01b039384166001600160a01b03199182161790915560038054929093169116179055565b610336610790565b600480546001600160a01b0319166001600160a01b0392909216919091179055565b610360610790565b61036a60006107cf565b565b6004546001600160a01b031681565b6000546001600160a01b031690565b6003546001600160a01b031681565b6002546001600160a01b031681565b6103b0610790565b6001600160a01b0381166103d65760405162461bcd60e51b81526004016102d190610960565b6103df816107cf565b50565b600080826001600160a01b0316636f307dc36040518163ffffffff1660e01b815260040160206040518083038186803b15801561041e57600080fd5b505afa158015610432573d6000803e3d6000fd5b505050506040513d601f19601f820116820180604052508101906104569190610846565b6003546040516315d8472b60e21b815291925060009182916001600160a01b0316906357611cac90610490908690611c2090600401610921565b60206040518083038186803b1580156104a857600080fd5b505afa9250505080156104d8575060408051601f3d908101601f191682019092526104d5918101906108c5565b60015b61052f573d808015610506576040519150601f19603f3d011682016040523d82523d6000602084013e61050b565b606091505b50506004546001600160a01b0316600090815260016020526040902054915061053b565b6001600160701b031691505b6004546001600160a01b03848116911614156105f8576006836001600160a01b031663313ce5676040518163ffffffff1660e01b815260040160206040518083038186803b15801561058c57600080fd5b505afa1580156105a0573d6000803e3d6000fd5b505050506040513d601f19601f820116820180604052508101906105c491906108ec565b6105cf906024610ba0565b6105d99190610ba0565b6105e490600a610ab0565b6105ee9083610b81565b935050505061078b565b6002546040516315d8472b60e21b81526001600160a01b03909116906357611cac9061062c908690611c2090600401610921565b60206040518083038186803b15801561064457600080fd5b505afa925050508015610674575060408051601f3d908101601f19168201909252610671918101906108c5565b60015b61077a573d8080156106a2576040519150601f19603f3d011682016040523d82523d6000602084013e6106a7565b606091505b5069d3c21bcecceda1000000846001600160a01b031663313ce5676040518163ffffffff1660e01b815260040160206040518083038186803b1580156106ec57600080fd5b505afa158015610700573d6000803e3d6000fd5b505050506040513d601f19601f8201168201806040525081019061072491906108ec565b61072f906024610ba0565b61073a90600a610ab0565b6001600160a01b03861660009081526001602052604090205461075e908690610b81565b6107689190610b81565b6107729190610a4a565b915050610786565b6001600160701b031690505b925050505b919050565b61079861081f565b6001600160a01b03166107a961037b565b6001600160a01b03161461036a5760405162461bcd60e51b81526004016102d1906109db565b600080546001600160a01b038381166001600160a01b0319831681178455604051919092169283917f8be0079c531659141344cd1fd0a4f28419497f9722a3daafe3b4186f6b6457e09190a35050565b3390565b600060208284031215610834578081fd5b813561083f81610bd9565b9392505050565b600060208284031215610857578081fd5b815161083f81610bd9565b60008060408385031215610874578081fd5b823561087f81610bd9565b9150602083013561088f81610bd9565b809150509250929050565b600080604083850312156108ac578182fd5b82356108b781610bd9565b946020939093013593505050565b6000602082840312156108d6578081fd5b81516001600160701b038116811461083f578182fd5b6000602082840312156108fd578081fd5b815160ff8116811461083f578182fd5b6001600160a01b0391909116815260200190565b6001600160a01b03929092168252602082015260400190565b6001600160a01b0394909416845260208401929092526040830152606082015260800190565b60208082526026908201527f4f776e61626c653a206e6577206f776e657220697320746865207a65726f206160408201526564647265737360d01b606082015260800190565b6020808252818101527f757364506567676564416767726567617465642061646472206e6f7420736574604082015260600190565b6020808252818101527f4f776e61626c653a2063616c6c6572206973206e6f7420746865206f776e6572604082015260600190565b6020808252601790820152761059d9dc9959d85d1959081859191c881b9bdd081cd95d604a1b604082015260600190565b90815260200190565b600082610a6557634e487b7160e01b81526012600452602481fd5b500490565b80825b6001808611610a7c5750610aa7565b818704821115610a8e57610a8e610bc3565b80861615610a9b57918102915b9490941c938002610a6d565b94509492505050565b600061083f60001960ff851684600082610acc5750600161083f565b81610ad95750600061083f565b8160018114610aef5760028114610af957610b26565b600191505061083f565b60ff841115610b0a57610b0a610bc3565b6001841b915084821115610b2057610b20610bc3565b5061083f565b5060208310610133831016604e8410600b8410161715610b59575081810a83811115610b5457610b54610bc3565b61083f565b610b668484846001610a6a565b808604821115610b7857610b78610bc3565b02949350505050565b6000816000190483118215151615610b9b57610b9b610bc3565b500290565b600060ff821660ff841680821015610bba57610bba610bc3565b90039392505050565b634e487b7160e01b600052601160045260246000fd5b6001600160a01b03811681146103df57600080fdfedd71a1d19fcba687442a1d5c58578f1e409af71a79d10fd95a4d66efd8fa9ae7a26469706673582212200432ec4b596e5474066f4a6dbc8312aa9bef483d69a574822c4e30b8424a844964736f6c63430008000033",
  "devdoc": {
    "kind": "dev",
    "methods": {
      "getUnderlyingPrice(address)": {
        "params": {
          "cToken": "The cToken to get the underlying price of"
        },
        "returns": {
          "_0": "The price of the asset in USD as an unsigned integer scaled up by 10 ^ (36 - underlying asset decimals). E.g. WBTC has 8 decimal places, so the return value is scaled up by 1e28."
        }
      },
      "owner()": {
        "details": "Returns the address of the current owner."
      },
      "renounceOwnership()": {
        "details": "Leaves the contract without owner. It will not be possible to call `onlyOwner` functions anymore. Can only be called by the current owner. NOTE: Renouncing ownership will leave the contract without an owner, thereby removing any functionality that is only available to the owner."
      },
      "setDirectPrice(address,uint256)": {
        "params": {
          "asset": "The address of the asset",
          "price": "The price to set the asset to: If WEVMOS, set the price with 6 decimals, otherwise use 18 decimals but denominate the price in WEVMOS"
        }
      },
      "setUnderlyingPrice(address,uint256)": {
        "params": {
          "cToken": "The address of the cToken",
          "price": "The price to set the asset to: If WEVMOS, set the price with 6 decimals, otherwise use 18 decimals but denominate the price in WEVMOS"
        }
      },
      "transferOwnership(address)": {
        "details": "Transfers ownership of the contract to a new account (`newOwner`). Can only be called by the current owner."
      }
    },
    "version": 1
  },
  "userdoc": {
    "kind": "user",
    "methods": {
      "getUnderlyingPrice(address)": {
        "notice": "Get the underlying price of a cToken asset"
      },
      "setDirectPrice(address,uint256)": {
        "notice": "set the price of an asset"
      },
      "setUnderlyingPrice(address,uint256)": {
        "notice": "set the price of the underlying asset of the ctoken"
      }
    },
    "version": 1
  },
  "storageLayout": {
    "storage": [
      {
        "astId": 7,
        "contract": "contracts/PriceOracle/AdrastiaPriceOracle.sol:AdrastiaPriceOracle",
        "label": "_owner",
        "offset": 0,
        "slot": "0",
        "type": "t_address"
      },
      {
        "astId": 1071,
        "contract": "contracts/PriceOracle/AdrastiaPriceOracle.sol:AdrastiaPriceOracle",
        "label": "backupPrices",
        "offset": 0,
        "slot": "1",
        "type": "t_mapping(t_address,t_uint256)"
      },
      {
        "astId": 1094,
        "contract": "contracts/PriceOracle/AdrastiaPriceOracle.sol:AdrastiaPriceOracle",
        "label": "aggregatedOracle",
        "offset": 0,
        "slot": "2",
        "type": "t_address"
      },
      {
        "astId": 1097,
        "contract": "contracts/PriceOracle/AdrastiaPriceOracle.sol:AdrastiaPriceOracle",
        "label": "usdPeggedAggregatedOracle",
        "offset": 0,
        "slot": "3",
        "type": "t_address"
      },
      {
        "astId": 1100,
        "contract": "contracts/PriceOracle/AdrastiaPriceOracle.sol:AdrastiaPriceOracle",
        "label": "WEVMOS",
        "offset": 0,
        "slot": "4",
        "type": "t_address"
      }
    ],
    "types": {
      "t_address": {
        "encoding": "inplace",
        "label": "address",
        "numberOfBytes": "20"
      },
      "t_mapping(t_address,t_uint256)": {
        "encoding": "mapping",
        "key": "t_address",
        "label": "mapping(address => uint256)",
        "numberOfBytes": "32",
        "value": "t_uint256"
      },
      "t_uint256": {
        "encoding": "inplace",
        "label": "uint256",
        "numberOfBytes": "32"
      }
    }
  }
}