{
  "address": "0xeAdB20d2f64b883fCD149A5591bb470110eD0ad1",
  "abi": [
    {
      "anonymous": false,
      "inputs": [
        {
          "indexed": false,
          "internalType": "address",
          "name": "asset",
          "type": "address"
        },
        {
          "indexed": false,
          "internalType": "address",
          "name": "oracle",
          "type": "address"
        }
      ],
      "name": "ExpiredPrice",
      "type": "event"
    },
    {
      "anonymous": false,
      "inputs": [
        {
          "indexed": true,
          "internalType": "address",
          "name": "previousOwner",
          "type": "address"
        },
        {
          "indexed": true,
          "internalType": "address",
          "name": "newOwner",
          "type": "address"
        }
      ],
      "name": "OwnershipTransferred",
      "type": "event"
    },
    {
      "anonymous": false,
      "inputs": [
        {
          "indexed": false,
          "internalType": "uint112",
          "name": "price",
          "type": "uint112"
        }
      ],
      "name": "Price",
      "type": "event"
    },
    {
      "anonymous": false,
      "inputs": [
        {
          "indexed": false,
          "internalType": "address",
          "name": "asset",
          "type": "address"
        },
        {
          "indexed": false,
          "internalType": "uint256",
          "name": "previousPriceMantissa",
          "type": "uint256"
        },
        {
          "indexed": false,
          "internalType": "uint256",
          "name": "requestedPriceMantissa",
          "type": "uint256"
        },
        {
          "indexed": false,
          "internalType": "uint256",
          "name": "newPriceMantissa",
          "type": "uint256"
        }
      ],
      "name": "PricePosted",
      "type": "event"
    },
    {
      "inputs": [],
      "name": "WEVMOS",
      "outputs": [
        {
          "internalType": "address",
          "name": "",
          "type": "address"
        }
      ],
      "stateMutability": "view",
      "type": "function"
    },
    {
      "inputs": [],
      "name": "aggregatedOracle",
      "outputs": [
        {
          "internalType": "address",
          "name": "",
          "type": "address"
        }
      ],
      "stateMutability": "view",
      "type": "function"
    },
    {
      "inputs": [
        {
          "internalType": "address",
          "name": "cToken",
          "type": "address"
        }
      ],
      "name": "getUnderlyingPrice",
      "outputs": [
        {
          "internalType": "uint256",
          "name": "",
          "type": "uint256"
        }
      ],
      "stateMutability": "view",
      "type": "function"
    },
    {
      "inputs": [],
      "name": "owner",
      "outputs": [
        {
          "internalType": "address",
          "name": "",
          "type": "address"
        }
      ],
      "stateMutability": "view",
      "type": "function"
    },
    {
      "inputs": [],
      "name": "renounceOwnership",
      "outputs": [],
      "stateMutability": "nonpayable",
      "type": "function"
    },
    {
      "inputs": [
        {
          "internalType": "address",
          "name": "asset",
          "type": "address"
        },
        {
          "internalType": "uint256",
          "name": "price",
          "type": "uint256"
        }
      ],
      "name": "setDirectPrice",
      "outputs": [],
      "stateMutability": "nonpayable",
      "type": "function"
    },
    {
      "inputs": [
        {
          "internalType": "address",
          "name": "aggregated",
          "type": "address"
        },
        {
          "internalType": "address",
          "name": "usdPeggedAggregated",
          "type": "address"
        }
      ],
      "name": "setOracleAddress",
      "outputs": [],
      "stateMutability": "nonpayable",
      "type": "function"
    },
    {
      "inputs": [
        {
          "internalType": "address",
          "name": "cToken",
          "type": "address"
        },
        {
          "internalType": "uint256",
          "name": "price",
          "type": "uint256"
        }
      ],
      "name": "setUnderlyingPrice",
      "outputs": [],
      "stateMutability": "nonpayable",
      "type": "function"
    },
    {
      "inputs": [
        {
          "internalType": "address",
          "name": "wevmos",
          "type": "address"
        }
      ],
      "name": "setWEVMOSAddress",
      "outputs": [],
      "stateMutability": "nonpayable",
      "type": "function"
    },
    {
      "inputs": [
        {
          "internalType": "address",
          "name": "newOwner",
          "type": "address"
        }
      ],
      "name": "transferOwnership",
      "outputs": [],
      "stateMutability": "nonpayable",
      "type": "function"
    },
    {
      "inputs": [],
      "name": "usdPeggedAggregatedOracle",
      "outputs": [
        {
          "internalType": "address",
          "name": "",
          "type": "address"
        }
      ],
      "stateMutability": "view",
      "type": "function"
    }
  ],
  "transactionHash": "0x64ce406874f0e88f23ab502243861757f34af2b6205bca9e7faeffee422118ed",
  "args": [],
  "solcInputHash": "c51ce32e1907684866ac1a697d03393a",
  "bytecode": "0x6080604052600280546001600160a01b03199081167351d3d22965bb2cb2749f896b82756ebad7812b6d1790915560038054821673d850f64eda6a62d625209711510f43cd49ef87981790556004805490911673d4949664cd82660aae99bedc034a0dea8a0bd51717905534801561007657600080fd5b5061008761008261008c565b610090565b6100e0565b3390565b600080546001600160a01b038381166001600160a01b0319831681178455604051919092169283917f8be0079c531659141344cd1fd0a4f28419497f9722a3daafe3b4186f6b6457e09190a35050565b6109b6806100ef6000396000f3fe608060405234801561001057600080fd5b50600436106100995760003560e01c806309a8acb01461009e578063127ffda0146100b357806346093b0e146100c657806357d6df05146100d9578063715018a6146100ec5780637cf5b4fc146100f45780638da5cb5b14610112578063af3721461461011a578063bb75f12d14610122578063f2fde38b1461012a578063fc57d4df1461013d575b600080fd5b6100b16100ac366004610771565b61015d565b005b6100b16100c1366004610771565b6101c6565b6100b16100d4366004610739565b6102a3565b6100b16100e73660046106fa565b61032e565b6100b1610358565b6100fc61036c565b60405161010991906107c3565b60405180910390f35b6100fc61037b565b6100fc61038a565b6100fc610399565b6100b16101383660046106fa565b6103a8565b61015061014b3660046106fa565b6103e2565b60405161010991906108f7565b610165610667565b6001600160a01b03821660009081526001602052604090819020549051600080516020610961833981519152916101a291859190859081906107f0565b60405180910390a16001600160a01b03909116600090815260016020526040902055565b6101ce610667565b6000826001600160a01b0316636f307dc36040518163ffffffff1660e01b815260040160206040518083038186803b15801561020957600080fd5b505afa15801561021d573d6000803e3d6000fd5b505050506040513d601f19601f82011682018060405250810190610241919061071d565b6001600160a01b0381166000908152600160205260409081902054905191925060008051602061096183398151915291610280918491869081906107f0565b60405180910390a16001600160a01b031660009081526001602052604090205550565b6102ab610667565b6001600160a01b0382166102da5760405162461bcd60e51b81526004016102d1906108c6565b60405180910390fd5b6001600160a01b0381166103005760405162461bcd60e51b81526004016102d19061085c565b600280546001600160a01b039384166001600160a01b03199182161790915560038054929093169116179055565b610336610667565b600480546001600160a01b0319166001600160a01b0392909216919091179055565b610360610667565b61036a60006106a6565b565b6004546001600160a01b031681565b6000546001600160a01b031690565b6003546001600160a01b031681565b6002546001600160a01b031681565b6103b0610667565b6001600160a01b0381166103d65760405162461bcd60e51b81526004016102d190610816565b6103df816106a6565b50565b600080826001600160a01b0316636f307dc36040518163ffffffff1660e01b815260040160206040518083038186803b15801561041e57600080fd5b505afa158015610432573d6000803e3d6000fd5b505050506040513d601f19601f82011682018060405250810190610456919061071d565b6003546040516315d8472b60e21b815291925060009182916001600160a01b0316906357611cac90610490908690611c20906004016107d7565b60206040518083038186803b1580156104a857600080fd5b505afa9250505080156104d8575060408051601f3d908101601f191682019092526104d59181019061079c565b60015b61052d573d808015610506576040519150601f19603f3d011682016040523d82523d6000602084013e61050b565b606091505b50506001600160a01b0383166000908152600160205260409020549150610539565b6001600160701b031691505b6004546001600160a01b03848116911614156105685761055e8264e8d4a51000610920565b9350505050610662565b6002546040516315d8472b60e21b81526001600160a01b03909116906357611cac9061059c908690611c20906004016107d7565b60206040518083038186803b1580156105b457600080fd5b505afa9250505080156105e4575060408051601f3d908101601f191682019092526105e19181019061079c565b60015b610638573d808015610612576040519150601f19603f3d011682016040523d82523d6000602084013e610617565b606091505b5050506001600160a01b038216600090815260016020526040902054610644565b6001600160701b031690505b620f42406106528284610920565b61065c9190610900565b93505050505b919050565b61066f6106f6565b6001600160a01b031661068061037b565b6001600160a01b03161461036a5760405162461bcd60e51b81526004016102d190610891565b600080546001600160a01b038381166001600160a01b0319831681178455604051919092169283917f8be0079c531659141344cd1fd0a4f28419497f9722a3daafe3b4186f6b6457e09190a35050565b3390565b60006020828403121561070b578081fd5b81356107168161094b565b9392505050565b60006020828403121561072e578081fd5b81516107168161094b565b6000806040838503121561074b578081fd5b82356107568161094b565b915060208301356107668161094b565b809150509250929050565b60008060408385031215610783578182fd5b823561078e8161094b565b946020939093013593505050565b6000602082840312156107ad578081fd5b81516001600160701b0381168114610716578182fd5b6001600160a01b0391909116815260200190565b6001600160a01b03929092168252602082015260400190565b6001600160a01b0394909416845260208401929092526040830152606082015260800190565b60208082526026908201527f4f776e61626c653a206e6577206f776e657220697320746865207a65726f206160408201526564647265737360d01b606082015260800190565b6020808252818101527f757364506567676564416767726567617465642061646472206e6f7420736574604082015260600190565b6020808252818101527f4f776e61626c653a2063616c6c6572206973206e6f7420746865206f776e6572604082015260600190565b6020808252601790820152761059d9dc9959d85d1959081859191c881b9bdd081cd95d604a1b604082015260600190565b90815260200190565b60008261091b57634e487b7160e01b81526012600452602481fd5b500490565b600081600019048311821515161561094657634e487b7160e01b81526011600452602481fd5b500290565b6001600160a01b03811681146103df57600080fdfedd71a1d19fcba687442a1d5c58578f1e409af71a79d10fd95a4d66efd8fa9ae7a2646970667358221220e9a71b7f19428b22a324c22ae0119ea054845b4ae3b12bf9a239280e7331804464736f6c63430008000033",
  "devdoc": {
    "kind": "dev",
    "methods": {
      "getUnderlyingPrice(address)": {
        "params": {
          "cToken": "The cToken to get the underlying price of"
        },
        "returns": {
          "_0": "The underlying asset price mantissa (scaled by 1e18).  Zero means the price is unavailable."
        }
      },
      "owner()": {
        "details": "Returns the address of the current owner."
      },
      "renounceOwnership()": {
        "details": "Leaves the contract without owner. It will not be possible to call `onlyOwner` functions anymore. Can only be called by the current owner. NOTE: Renouncing ownership will leave the contract without an owner, thereby removing any functionality that is only available to the owner."
      },
      "setDirectPrice(address,uint256)": {
        "params": {
          "asset": "The address of the asset",
          "price": "The price to set the asset to:  If WEVMOS, set the price with 6 decimals, otherwise use 18 decimals but denominate the price in WEVMOS"
        }
      },
      "setUnderlyingPrice(address,uint256)": {
        "params": {
          "cToken": "The address of the cToken",
          "price": "The price to set the asset to:  If WEVMOS, set the price with 6 decimals, otherwise use 18 decimals but denominate the price in WEVMOS"
        }
      },
      "transferOwnership(address)": {
        "details": "Transfers ownership of the contract to a new account (`newOwner`). Can only be called by the current owner."
      }
    },
    "version": 1
  },
  "userdoc": {
    "kind": "user",
    "methods": {
      "getUnderlyingPrice(address)": {
        "notice": "Get the underlying price of a cToken asset"
      },
      "setDirectPrice(address,uint256)": {
        "notice": "set the price of an asset"
      },
      "setUnderlyingPrice(address,uint256)": {
        "notice": "set the price of the underlying asset of the ctoken"
      }
    },
    "version": 1
  },
  "storageLayout": {
    "storage": [
      {
        "astId": 7,
        "contract": "contracts/PriceOracle/AdrastiaPriceOracle.sol:AdrastiaPriceOracle",
        "label": "_owner",
        "offset": 0,
        "slot": "0",
        "type": "t_address"
      },
      {
        "astId": 1070,
        "contract": "contracts/PriceOracle/AdrastiaPriceOracle.sol:AdrastiaPriceOracle",
        "label": "backupPrices",
        "offset": 0,
        "slot": "1",
        "type": "t_mapping(t_address,t_uint256)"
      },
      {
        "astId": 1093,
        "contract": "contracts/PriceOracle/AdrastiaPriceOracle.sol:AdrastiaPriceOracle",
        "label": "aggregatedOracle",
        "offset": 0,
        "slot": "2",
        "type": "t_address"
      },
      {
        "astId": 1096,
        "contract": "contracts/PriceOracle/AdrastiaPriceOracle.sol:AdrastiaPriceOracle",
        "label": "usdPeggedAggregatedOracle",
        "offset": 0,
        "slot": "3",
        "type": "t_address"
      },
      {
        "astId": 1099,
        "contract": "contracts/PriceOracle/AdrastiaPriceOracle.sol:AdrastiaPriceOracle",
        "label": "WEVMOS",
        "offset": 0,
        "slot": "4",
        "type": "t_address"
      }
    ],
    "types": {
      "t_address": {
        "encoding": "inplace",
        "label": "address",
        "numberOfBytes": "20"
      },
      "t_mapping(t_address,t_uint256)": {
        "encoding": "mapping",
        "key": "t_address",
        "label": "mapping(address => uint256)",
        "numberOfBytes": "32",
        "value": "t_uint256"
      },
      "t_uint256": {
        "encoding": "inplace",
        "label": "uint256",
        "numberOfBytes": "32"
      }
    }
  }
}