{
  "address": "0x0BCB8B2c727c708ce1aC3fE797215212983B41d5",
  "abi": [
    {
      "inputs": [
        {
          "internalType": "address",
          "name": "token",
          "type": "address"
        },
        {
          "internalType": "uint256",
          "name": "maxAge",
          "type": "uint256"
        }
      ],
      "name": "consultPrice",
      "outputs": [
        {
          "internalType": "uint112",
          "name": "price",
          "type": "uint112"
        }
      ],
      "stateMutability": "view",
      "type": "function"
    }
  ],
  "transactionHash": "0xdaeebebdd7b7555debdc09fec8ef602a2d93d53bcf4b1744190ac24cbc05f44d",
  "args": [],
  "solcInputHash": "d89f0b1356f0208e4096a5d145ecb584",
  "bytecode": "0x608060405234801561001057600080fd5b5060d58061001f6000396000f3fe6080604052348015600f57600080fd5b506004361060285760003560e01c806357611cac14602d575b600080fd5b603c60383660046057565b6050565b60405160479190608b565b60405180910390f35b6000806000fd5b600080604083850312156068578182fd5b82356001600160a01b0381168114607d578283fd5b946020939093013593505050565b6001600160701b039190911681526020019056fea264697066735822122048717cbcf380fc0cd9a361cc64d1a29d1a35812a5dd0385d9ae2f44b621e250a64736f6c63430008000033",
  "devdoc": {
    "kind": "dev",
    "methods": {},
    "version": 1
  },
  "userdoc": {
    "kind": "user",
    "methods": {},
    "version": 1
  },
  "storageLayout": {
    "storage": [],
    "types": null
  }
}