{
  "address": "0x62D3A618070bEEc8b0a42Cd49D29825b5080970F",
  "abi": [
    {
      "anonymous": false,
      "inputs": [
        {
          "indexed": false,
          "internalType": "address",
          "name": "asset",
          "type": "address"
        },
        {
          "indexed": false,
          "internalType": "address",
          "name": "oracle",
          "type": "address"
        }
      ],
      "name": "ExpiredPrice",
      "type": "event"
    },
    {
      "anonymous": false,
      "inputs": [
        {
          "indexed": true,
          "internalType": "address",
          "name": "previousOwner",
          "type": "address"
        },
        {
          "indexed": true,
          "internalType": "address",
          "name": "newOwner",
          "type": "address"
        }
      ],
      "name": "OwnershipTransferred",
      "type": "event"
    },
    {
      "anonymous": false,
      "inputs": [
        {
          "indexed": false,
          "internalType": "uint112",
          "name": "price",
          "type": "uint112"
        }
      ],
      "name": "Price",
      "type": "event"
    },
    {
      "anonymous": false,
      "inputs": [
        {
          "indexed": false,
          "internalType": "address",
          "name": "asset",
          "type": "address"
        },
        {
          "indexed": false,
          "internalType": "uint256",
          "name": "previousPriceMantissa",
          "type": "uint256"
        },
        {
          "indexed": false,
          "internalType": "uint256",
          "name": "requestedPriceMantissa",
          "type": "uint256"
        },
        {
          "indexed": false,
          "internalType": "uint256",
          "name": "newPriceMantissa",
          "type": "uint256"
        }
      ],
      "name": "PricePosted",
      "type": "event"
    },
    {
      "inputs": [
        {
          "internalType": "address",
          "name": "cToken",
          "type": "address"
        }
      ],
      "name": "getUnderlyingPrice",
      "outputs": [
        {
          "internalType": "uint256",
          "name": "",
          "type": "uint256"
        }
      ],
      "stateMutability": "view",
      "type": "function"
    },
    {
      "inputs": [],
      "name": "owner",
      "outputs": [
        {
          "internalType": "address",
          "name": "",
          "type": "address"
        }
      ],
      "stateMutability": "view",
      "type": "function"
    },
    {
      "inputs": [],
      "name": "renounceOwnership",
      "outputs": [],
      "stateMutability": "nonpayable",
      "type": "function"
    },
    {
      "inputs": [
        {
          "internalType": "address",
          "name": "asset",
          "type": "address"
        },
        {
          "internalType": "uint256",
          "name": "price",
          "type": "uint256"
        }
      ],
      "name": "setDirectPrice",
      "outputs": [],
      "stateMutability": "nonpayable",
      "type": "function"
    },
    {
      "inputs": [
        {
          "internalType": "address",
          "name": "aggregated",
          "type": "address"
        },
        {
          "internalType": "address",
          "name": "usdPeggedAggregated",
          "type": "address"
        }
      ],
      "name": "setOracleAddress",
      "outputs": [],
      "stateMutability": "nonpayable",
      "type": "function"
    },
    {
      "inputs": [
        {
          "internalType": "address",
          "name": "cToken",
          "type": "address"
        },
        {
          "internalType": "uint256",
          "name": "price",
          "type": "uint256"
        }
      ],
      "name": "setUnderlyingPrice",
      "outputs": [],
      "stateMutability": "nonpayable",
      "type": "function"
    },
    {
      "inputs": [
        {
          "internalType": "address",
          "name": "newOwner",
          "type": "address"
        }
      ],
      "name": "transferOwnership",
      "outputs": [],
      "stateMutability": "nonpayable",
      "type": "function"
    }
  ],
  "transactionHash": "0x55de9ecc4fef63748f145b0aa1cdcaf0a2de3ccfdddca7948c9dc98cba1ac94e",
  "args": [],
  "solcInputHash": "f7e1623ade68c2b4101857a39be05b13",
  "bytecode": "0x6080604052600280546001600160a01b03199081167351d3d22965bb2cb2749f896b82756ebad7812b6d179091556003805490911673d850f64eda6a62d625209711510f43cd49ef879817905534801561005857600080fd5b5061006961006461006e565b610072565b6100c2565b3390565b600080546001600160a01b038381166001600160a01b0319831681178455604051919092169283917f8be0079c531659141344cd1fd0a4f28419497f9722a3daafe3b4186f6b6457e09190a35050565b610bde806100d16000396000f3fe608060405234801561001057600080fd5b506004361061007d5760003560e01c8063715018a61161005b578063715018a6146100bd5780638da5cb5b146100c5578063f2fde38b146100e3578063fc57d4df146100f65761007d565b806309a8acb014610082578063127ffda01461009757806346093b0e146100aa575b600080fd5b610095610090366004610911565b610116565b005b6100956100a5366004610911565b6101ab565b6100956100b83660046108d9565b6102c1565b6100956103bf565b6100cd6103d3565b6040516100da919061096a565b60405180910390f35b6100956100f136600461089a565b6103ef565b61010961010436600461089a565b610450565b6040516100da9190610ae2565b61011e6107ae565b73ffffffffffffffffffffffffffffffffffffffff8216600090815260016020526040908190205490517fdd71a1d19fcba687442a1d5c58578f1e409af71a79d10fd95a4d66efd8fa9ae79161017a91859190859081906109b1565b60405180910390a173ffffffffffffffffffffffffffffffffffffffff909116600090815260016020526040902055565b6101b36107ae565b60008273ffffffffffffffffffffffffffffffffffffffff16636f307dc36040518163ffffffff1660e01b815260040160206040518083038186803b1580156101fb57600080fd5b505afa15801561020f573d6000803e3d6000fd5b505050506040513d601f19601f8201168201806040525081019061023391906108bd565b73ffffffffffffffffffffffffffffffffffffffff8116600090815260016020526040908190205490519192507fdd71a1d19fcba687442a1d5c58578f1e409af71a79d10fd95a4d66efd8fa9ae791610291918491869081906109b1565b60405180910390a173ffffffffffffffffffffffffffffffffffffffff1660009081526001602052604090205550565b6102c96107ae565b73ffffffffffffffffffffffffffffffffffffffff821661031f576040517f08c379a000000000000000000000000000000000000000000000000000000000815260040161031690610aab565b60405180910390fd5b73ffffffffffffffffffffffffffffffffffffffff811661036c576040517f08c379a000000000000000000000000000000000000000000000000000000000815260040161031690610a41565b6002805473ffffffffffffffffffffffffffffffffffffffff9384167fffffffffffffffffffffffff00000000000000000000000000000000000000009182161790915560038054929093169116179055565b6103c76107ae565b6103d16000610821565b565b60005473ffffffffffffffffffffffffffffffffffffffff1690565b6103f76107ae565b73ffffffffffffffffffffffffffffffffffffffff8116610444576040517f08c379a0000000000000000000000000000000000000000000000000000000008152600401610316906109e4565b61044d81610821565b50565b6000808273ffffffffffffffffffffffffffffffffffffffff16636f307dc36040518163ffffffff1660e01b815260040160206040518083038186803b15801561049957600080fd5b505afa1580156104ad573d6000803e3d6000fd5b505050506040513d601f19601f820116820180604052508101906104d191906108bd565b6003546040517f57611cac000000000000000000000000000000000000000000000000000000008152919250600091829173ffffffffffffffffffffffffffffffffffffffff16906357611cac90610531908690611c209060040161098b565b60206040518083038186803b15801561054957600080fd5b505afa925050508015610597575060408051601f3d9081017fffffffffffffffffffffffffffffffffffffffffffffffffffffffffffffffe01682019092526105949181019061093c565b60015b6105f9573d8080156105c5576040519150601f19603f3d011682016040523d82523d6000602084013e6105ca565b606091505b505073ffffffffffffffffffffffffffffffffffffffff8316600090815260016020526040902054915061060c565b6dffffffffffffffffffffffffffff1691505b73ffffffffffffffffffffffffffffffffffffffff831673d4949664cd82660aae99bedc034a0dea8a0bd51714156106575761064d8264e8d4a51000610b24565b93505050506107a9565b6002546040517f57611cac00000000000000000000000000000000000000000000000000000000815273ffffffffffffffffffffffffffffffffffffffff909116906357611cac906106b1908690611c209060040161098b565b60206040518083038186803b1580156106c957600080fd5b505afa925050508015610717575060408051601f3d9081017fffffffffffffffffffffffffffffffffffffffffffffffffffffffffffffffe01682019092526107149181019061093c565b60015b610778573d808015610745576040519150601f19603f3d011682016040523d82523d6000602084013e61074a565b606091505b50505073ffffffffffffffffffffffffffffffffffffffff821660009081526001602052604090205461078b565b6dffffffffffffffffffffffffffff1690505b620f42406107998284610b24565b6107a39190610aeb565b93505050505b919050565b6107b6610896565b73ffffffffffffffffffffffffffffffffffffffff166107d46103d3565b73ffffffffffffffffffffffffffffffffffffffff16146103d1576040517f08c379a000000000000000000000000000000000000000000000000000000000815260040161031690610a76565b6000805473ffffffffffffffffffffffffffffffffffffffff8381167fffffffffffffffffffffffff0000000000000000000000000000000000000000831681178455604051919092169283917f8be0079c531659141344cd1fd0a4f28419497f9722a3daafe3b4186f6b6457e09190a35050565b3390565b6000602082840312156108ab578081fd5b81356108b681610b86565b9392505050565b6000602082840312156108ce578081fd5b81516108b681610b86565b600080604083850312156108eb578081fd5b82356108f681610b86565b9150602083013561090681610b86565b809150509250929050565b60008060408385031215610923578182fd5b823561092e81610b86565b946020939093013593505050565b60006020828403121561094d578081fd5b81516dffffffffffffffffffffffffffff811681146108b6578182fd5b73ffffffffffffffffffffffffffffffffffffffff91909116815260200190565b73ffffffffffffffffffffffffffffffffffffffff929092168252602082015260400190565b73ffffffffffffffffffffffffffffffffffffffff94909416845260208401929092526040830152606082015260800190565b60208082526026908201527f4f776e61626c653a206e6577206f776e657220697320746865207a65726f206160408201527f6464726573730000000000000000000000000000000000000000000000000000606082015260800190565b6020808252818101527f757364506567676564416767726567617465642061646472206e6f7420736574604082015260600190565b6020808252818101527f4f776e61626c653a2063616c6c6572206973206e6f7420746865206f776e6572604082015260600190565b60208082526017908201527f416767726567617465642061646472206e6f7420736574000000000000000000604082015260600190565b90815260200190565b600082610b1f577f4e487b710000000000000000000000000000000000000000000000000000000081526012600452602481fd5b500490565b6000817fffffffffffffffffffffffffffffffffffffffffffffffffffffffffffffffff0483118215151615610b81577f4e487b710000000000000000000000000000000000000000000000000000000081526011600452602481fd5b500290565b73ffffffffffffffffffffffffffffffffffffffff8116811461044d57600080fdfea2646970667358221220675710e30d67635925ab0facadc7bdacd1fcaaa598d74b793daf120f5f03554664736f6c63430008000033",
  "devdoc": {
    "kind": "dev",
    "methods": {
      "getUnderlyingPrice(address)": {
        "params": {
          "cToken": "The cToken to get the underlying price of"
        },
        "returns": {
          "_0": "The underlying asset price mantissa (scaled by 1e18).  Zero means the price is unavailable."
        }
      },
      "owner()": {
        "details": "Returns the address of the current owner."
      },
      "renounceOwnership()": {
        "details": "Leaves the contract without owner. It will not be possible to call `onlyOwner` functions anymore. Can only be called by the current owner. NOTE: Renouncing ownership will leave the contract without an owner, thereby removing any functionality that is only available to the owner."
      },
      "setDirectPrice(address,uint256)": {
        "params": {
          "asset": "The address of the asset",
          "price": "The price to set the asset to:  If WEVMOS, set the price with 6 decimals, otherwise use 18 decimals but denominate the price in WEVMOS"
        }
      },
      "setUnderlyingPrice(address,uint256)": {
        "params": {
          "cToken": "The address of the cToken",
          "price": "The price to set the asset to:  If WEVMOS, set the price with 6 decimals, otherwise use 18 decimals but denominate the price in WEVMOS"
        }
      },
      "transferOwnership(address)": {
        "details": "Transfers ownership of the contract to a new account (`newOwner`). Can only be called by the current owner."
      }
    },
    "version": 1
  },
  "userdoc": {
    "kind": "user",
    "methods": {
      "getUnderlyingPrice(address)": {
        "notice": "Get the underlying price of a cToken asset"
      },
      "setDirectPrice(address,uint256)": {
        "notice": "set the price of an asset"
      },
      "setUnderlyingPrice(address,uint256)": {
        "notice": "set the price of the underlying asset of the ctoken"
      }
    },
    "version": 1
  },
  "storageLayout": {
    "storage": [
      {
        "astId": 7,
        "contract": "contracts/PriceOracle/AdrastiaPriceOracle.sol:AdrastiaPriceOracle",
        "label": "_owner",
        "offset": 0,
        "slot": "0",
        "type": "t_address"
      },
      {
        "astId": 1070,
        "contract": "contracts/PriceOracle/AdrastiaPriceOracle.sol:AdrastiaPriceOracle",
        "label": "backupPrices",
        "offset": 0,
        "slot": "1",
        "type": "t_mapping(t_address,t_uint256)"
      },
      {
        "astId": 1093,
        "contract": "contracts/PriceOracle/AdrastiaPriceOracle.sol:AdrastiaPriceOracle",
        "label": "aggregatedOracle",
        "offset": 0,
        "slot": "2",
        "type": "t_address"
      },
      {
        "astId": 1096,
        "contract": "contracts/PriceOracle/AdrastiaPriceOracle.sol:AdrastiaPriceOracle",
        "label": "usdPeggedAggregatedOracle",
        "offset": 0,
        "slot": "3",
        "type": "t_address"
      }
    ],
    "types": {
      "t_address": {
        "encoding": "inplace",
        "label": "address",
        "numberOfBytes": "20"
      },
      "t_mapping(t_address,t_uint256)": {
        "encoding": "mapping",
        "key": "t_address",
        "label": "mapping(address => uint256)",
        "numberOfBytes": "32",
        "value": "t_uint256"
      },
      "t_uint256": {
        "encoding": "inplace",
        "label": "uint256",
        "numberOfBytes": "32"
      }
    }
  }
}