{
  "address": "0x8AbF491519a3B2911163553Eb2e1fc3DeB452c03",
  "abi": [
    {
      "inputs": [],
      "payable": false,
      "stateMutability": "nonpayable",
      "type": "constructor"
    },
    {
      "anonymous": false,
      "inputs": [
        {
          "indexed": false,
          "internalType": "uint256",
          "name": "cashPrior",
          "type": "uint256"
        },
        {
          "indexed": false,
          "internalType": "uint256",
          "name": "interestAccumulated",
          "type": "uint256"
        },
        {
          "indexed": false,
          "internalType": "uint256",
          "name": "borrowIndex",
          "type": "uint256"
        },
        {
          "indexed": false,
          "internalType": "uint256",
          "name": "totalBorrows",
          "type": "uint256"
        }
      ],
      "name": "AccrueInterest",
      "type": "event"
    },
    {
      "anonymous": false,
      "inputs": [
        {
          "indexed": true,
          "internalType": "address",
          "name": "owner",
          "type": "address"
        },
        {
          "indexed": true,
          "internalType": "address",
          "name": "spender",
          "type": "address"
        },
        {
          "indexed": false,
          "internalType": "uint256",
          "name": "amount",
          "type": "uint256"
        }
      ],
      "name": "Approval",
      "type": "event"
    },
    {
      "anonymous": false,
      "inputs": [
        {
          "indexed": false,
          "internalType": "address",
          "name": "borrower",
          "type": "address"
        },
        {
          "indexed": false,
          "internalType": "uint256",
          "name": "borrowAmount",
          "type": "uint256"
        },
        {
          "indexed": false,
          "internalType": "uint256",
          "name": "accountBorrows",
          "type": "uint256"
        },
        {
          "indexed": false,
          "internalType": "uint256",
          "name": "totalBorrows",
          "type": "uint256"
        }
      ],
      "name": "Borrow",
      "type": "event"
    },
    {
      "anonymous": false,
      "inputs": [
        {
          "indexed": false,
          "internalType": "uint256",
          "name": "error",
          "type": "uint256"
        },
        {
          "indexed": false,
          "internalType": "uint256",
          "name": "info",
          "type": "uint256"
        },
        {
          "indexed": false,
          "internalType": "uint256",
          "name": "detail",
          "type": "uint256"
        }
      ],
      "name": "Failure",
      "type": "event"
    },
    {
      "anonymous": false,
      "inputs": [
        {
          "indexed": true,
          "internalType": "address",
          "name": "receiver",
          "type": "address"
        },
        {
          "indexed": false,
          "internalType": "uint256",
          "name": "amount",
          "type": "uint256"
        },
        {
          "indexed": false,
          "internalType": "uint256",
          "name": "totalFee",
          "type": "uint256"
        },
        {
          "indexed": false,
          "internalType": "uint256",
          "name": "reservesFee",
          "type": "uint256"
        }
      ],
      "name": "Flashloan",
      "type": "event"
    },
    {
      "anonymous": false,
      "inputs": [
        {
          "indexed": false,
          "internalType": "address",
          "name": "liquidator",
          "type": "address"
        },
        {
          "indexed": false,
          "internalType": "address",
          "name": "borrower",
          "type": "address"
        },
        {
          "indexed": false,
          "internalType": "uint256",
          "name": "repayAmount",
          "type": "uint256"
        },
        {
          "indexed": false,
          "internalType": "address",
          "name": "cTokenCollateral",
          "type": "address"
        },
        {
          "indexed": false,
          "internalType": "uint256",
          "name": "seizeTokens",
          "type": "uint256"
        }
      ],
      "name": "LiquidateBorrow",
      "type": "event"
    },
    {
      "anonymous": false,
      "inputs": [
        {
          "indexed": false,
          "internalType": "address",
          "name": "minter",
          "type": "address"
        },
        {
          "indexed": false,
          "internalType": "uint256",
          "name": "mintAmount",
          "type": "uint256"
        },
        {
          "indexed": false,
          "internalType": "uint256",
          "name": "mintTokens",
          "type": "uint256"
        }
      ],
      "name": "Mint",
      "type": "event"
    },
    {
      "anonymous": false,
      "inputs": [
        {
          "indexed": false,
          "internalType": "address",
          "name": "oldAdmin",
          "type": "address"
        },
        {
          "indexed": false,
          "internalType": "address",
          "name": "newAdmin",
          "type": "address"
        }
      ],
      "name": "NewAdmin",
      "type": "event"
    },
    {
      "anonymous": false,
      "inputs": [
        {
          "indexed": false,
          "internalType": "contract ComptrollerInterface",
          "name": "oldComptroller",
          "type": "address"
        },
        {
          "indexed": false,
          "internalType": "contract ComptrollerInterface",
          "name": "newComptroller",
          "type": "address"
        }
      ],
      "name": "NewComptroller",
      "type": "event"
    },
    {
      "anonymous": false,
      "inputs": [
        {
          "indexed": false,
          "internalType": "contract InterestRateModel",
          "name": "oldInterestRateModel",
          "type": "address"
        },
        {
          "indexed": false,
          "internalType": "contract InterestRateModel",
          "name": "newInterestRateModel",
          "type": "address"
        }
      ],
      "name": "NewMarketInterestRateModel",
      "type": "event"
    },
    {
      "anonymous": false,
      "inputs": [
        {
          "indexed": false,
          "internalType": "address",
          "name": "oldPendingAdmin",
          "type": "address"
        },
        {
          "indexed": false,
          "internalType": "address",
          "name": "newPendingAdmin",
          "type": "address"
        }
      ],
      "name": "NewPendingAdmin",
      "type": "event"
    },
    {
      "anonymous": false,
      "inputs": [
        {
          "indexed": false,
          "internalType": "uint256",
          "name": "oldReserveFactorMantissa",
          "type": "uint256"
        },
        {
          "indexed": false,
          "internalType": "uint256",
          "name": "newReserveFactorMantissa",
          "type": "uint256"
        }
      ],
      "name": "NewReserveFactor",
      "type": "event"
    },
    {
      "anonymous": false,
      "inputs": [
        {
          "indexed": false,
          "internalType": "address",
          "name": "redeemer",
          "type": "address"
        },
        {
          "indexed": false,
          "internalType": "uint256",
          "name": "redeemAmount",
          "type": "uint256"
        },
        {
          "indexed": false,
          "internalType": "uint256",
          "name": "redeemTokens",
          "type": "uint256"
        }
      ],
      "name": "Redeem",
      "type": "event"
    },
    {
      "anonymous": false,
      "inputs": [
        {
          "indexed": false,
          "internalType": "address",
          "name": "payer",
          "type": "address"
        },
        {
          "indexed": false,
          "internalType": "address",
          "name": "borrower",
          "type": "address"
        },
        {
          "indexed": false,
          "internalType": "uint256",
          "name": "repayAmount",
          "type": "uint256"
        },
        {
          "indexed": false,
          "internalType": "uint256",
          "name": "accountBorrows",
          "type": "uint256"
        },
        {
          "indexed": false,
          "internalType": "uint256",
          "name": "totalBorrows",
          "type": "uint256"
        }
      ],
      "name": "RepayBorrow",
      "type": "event"
    },
    {
      "anonymous": false,
      "inputs": [
        {
          "indexed": false,
          "internalType": "address",
          "name": "benefactor",
          "type": "address"
        },
        {
          "indexed": false,
          "internalType": "uint256",
          "name": "addAmount",
          "type": "uint256"
        },
        {
          "indexed": false,
          "internalType": "uint256",
          "name": "newTotalReserves",
          "type": "uint256"
        }
      ],
      "name": "ReservesAdded",
      "type": "event"
    },
    {
      "anonymous": false,
      "inputs": [
        {
          "indexed": false,
          "internalType": "address",
          "name": "admin",
          "type": "address"
        },
        {
          "indexed": false,
          "internalType": "uint256",
          "name": "reduceAmount",
          "type": "uint256"
        },
        {
          "indexed": false,
          "internalType": "uint256",
          "name": "newTotalReserves",
          "type": "uint256"
        }
      ],
      "name": "ReservesReduced",
      "type": "event"
    },
    {
      "anonymous": false,
      "inputs": [
        {
          "indexed": true,
          "internalType": "address",
          "name": "from",
          "type": "address"
        },
        {
          "indexed": true,
          "internalType": "address",
          "name": "to",
          "type": "address"
        },
        {
          "indexed": false,
          "internalType": "uint256",
          "name": "amount",
          "type": "uint256"
        }
      ],
      "name": "Transfer",
      "type": "event"
    },
    {
      "payable": true,
      "stateMutability": "payable",
      "type": "fallback"
    },
    {
      "constant": false,
      "inputs": [],
      "name": "_acceptAdmin",
      "outputs": [
        {
          "internalType": "uint256",
          "name": "",
          "type": "uint256"
        }
      ],
      "payable": false,
      "stateMutability": "nonpayable",
      "type": "function"
    },
    {
      "constant": false,
      "inputs": [
        {
          "internalType": "uint256",
          "name": "addAmount",
          "type": "uint256"
        }
      ],
      "name": "_addReserves",
      "outputs": [
        {
          "internalType": "uint256",
          "name": "",
          "type": "uint256"
        }
      ],
      "payable": false,
      "stateMutability": "nonpayable",
      "type": "function"
    },
    {
      "constant": false,
      "inputs": [],
      "name": "_addReservesNative",
      "outputs": [
        {
          "internalType": "uint256",
          "name": "",
          "type": "uint256"
        }
      ],
      "payable": true,
      "stateMutability": "payable",
      "type": "function"
    },
    {
      "constant": false,
      "inputs": [
        {
          "internalType": "bytes",
          "name": "data",
          "type": "bytes"
        }
      ],
      "name": "_becomeImplementation",
      "outputs": [],
      "payable": false,
      "stateMutability": "nonpayable",
      "type": "function"
    },
    {
      "constant": false,
      "inputs": [
        {
          "internalType": "uint256",
          "name": "reduceAmount",
          "type": "uint256"
        }
      ],
      "name": "_reduceReserves",
      "outputs": [
        {
          "internalType": "uint256",
          "name": "",
          "type": "uint256"
        }
      ],
      "payable": false,
      "stateMutability": "nonpayable",
      "type": "function"
    },
    {
      "constant": false,
      "inputs": [],
      "name": "_resignImplementation",
      "outputs": [],
      "payable": false,
      "stateMutability": "nonpayable",
      "type": "function"
    },
    {
      "constant": false,
      "inputs": [
        {
          "internalType": "contract ComptrollerInterface",
          "name": "newComptroller",
          "type": "address"
        }
      ],
      "name": "_setComptroller",
      "outputs": [
        {
          "internalType": "uint256",
          "name": "",
          "type": "uint256"
        }
      ],
      "payable": false,
      "stateMutability": "nonpayable",
      "type": "function"
    },
    {
      "constant": false,
      "inputs": [
        {
          "internalType": "contract InterestRateModel",
          "name": "newInterestRateModel",
          "type": "address"
        }
      ],
      "name": "_setInterestRateModel",
      "outputs": [
        {
          "internalType": "uint256",
          "name": "",
          "type": "uint256"
        }
      ],
      "payable": false,
      "stateMutability": "nonpayable",
      "type": "function"
    },
    {
      "constant": false,
      "inputs": [
        {
          "internalType": "address payable",
          "name": "newPendingAdmin",
          "type": "address"
        }
      ],
      "name": "_setPendingAdmin",
      "outputs": [
        {
          "internalType": "uint256",
          "name": "",
          "type": "uint256"
        }
      ],
      "payable": false,
      "stateMutability": "nonpayable",
      "type": "function"
    },
    {
      "constant": false,
      "inputs": [
        {
          "internalType": "uint256",
          "name": "newReserveFactorMantissa",
          "type": "uint256"
        }
      ],
      "name": "_setReserveFactor",
      "outputs": [
        {
          "internalType": "uint256",
          "name": "",
          "type": "uint256"
        }
      ],
      "payable": false,
      "stateMutability": "nonpayable",
      "type": "function"
    },
    {
      "constant": true,
      "inputs": [],
      "name": "accrualBlockNumber",
      "outputs": [
        {
          "internalType": "uint256",
          "name": "",
          "type": "uint256"
        }
      ],
      "payable": false,
      "stateMutability": "view",
      "type": "function"
    },
    {
      "constant": false,
      "inputs": [],
      "name": "accrueInterest",
      "outputs": [
        {
          "internalType": "uint256",
          "name": "",
          "type": "uint256"
        }
      ],
      "payable": false,
      "stateMutability": "nonpayable",
      "type": "function"
    },
    {
      "constant": true,
      "inputs": [],
      "name": "admin",
      "outputs": [
        {
          "internalType": "address payable",
          "name": "",
          "type": "address"
        }
      ],
      "payable": false,
      "stateMutability": "view",
      "type": "function"
    },
    {
      "constant": true,
      "inputs": [
        {
          "internalType": "address",
          "name": "owner",
          "type": "address"
        },
        {
          "internalType": "address",
          "name": "spender",
          "type": "address"
        }
      ],
      "name": "allowance",
      "outputs": [
        {
          "internalType": "uint256",
          "name": "",
          "type": "uint256"
        }
      ],
      "payable": false,
      "stateMutability": "view",
      "type": "function"
    },
    {
      "constant": false,
      "inputs": [
        {
          "internalType": "address",
          "name": "spender",
          "type": "address"
        },
        {
          "internalType": "uint256",
          "name": "amount",
          "type": "uint256"
        }
      ],
      "name": "approve",
      "outputs": [
        {
          "internalType": "bool",
          "name": "",
          "type": "bool"
        }
      ],
      "payable": false,
      "stateMutability": "nonpayable",
      "type": "function"
    },
    {
      "constant": true,
      "inputs": [
        {
          "internalType": "address",
          "name": "owner",
          "type": "address"
        }
      ],
      "name": "balanceOf",
      "outputs": [
        {
          "internalType": "uint256",
          "name": "",
          "type": "uint256"
        }
      ],
      "payable": false,
      "stateMutability": "view",
      "type": "function"
    },
    {
      "constant": false,
      "inputs": [
        {
          "internalType": "address",
          "name": "owner",
          "type": "address"
        }
      ],
      "name": "balanceOfUnderlying",
      "outputs": [
        {
          "internalType": "uint256",
          "name": "",
          "type": "uint256"
        }
      ],
      "payable": false,
      "stateMutability": "nonpayable",
      "type": "function"
    },
    {
      "constant": false,
      "inputs": [
        {
          "internalType": "uint256",
          "name": "borrowAmount",
          "type": "uint256"
        }
      ],
      "name": "borrow",
      "outputs": [
        {
          "internalType": "uint256",
          "name": "",
          "type": "uint256"
        }
      ],
      "payable": false,
      "stateMutability": "nonpayable",
      "type": "function"
    },
    {
      "constant": false,
      "inputs": [
        {
          "internalType": "address",
          "name": "account",
          "type": "address"
        }
      ],
      "name": "borrowBalanceCurrent",
      "outputs": [
        {
          "internalType": "uint256",
          "name": "",
          "type": "uint256"
        }
      ],
      "payable": false,
      "stateMutability": "nonpayable",
      "type": "function"
    },
    {
      "constant": true,
      "inputs": [
        {
          "internalType": "address",
          "name": "account",
          "type": "address"
        }
      ],
      "name": "borrowBalanceStored",
      "outputs": [
        {
          "internalType": "uint256",
          "name": "",
          "type": "uint256"
        }
      ],
      "payable": false,
      "stateMutability": "view",
      "type": "function"
    },
    {
      "constant": true,
      "inputs": [],
      "name": "borrowIndex",
      "outputs": [
        {
          "internalType": "uint256",
          "name": "",
          "type": "uint256"
        }
      ],
      "payable": false,
      "stateMutability": "view",
      "type": "function"
    },
    {
      "constant": false,
      "inputs": [
        {
          "internalType": "uint256",
          "name": "borrowAmount",
          "type": "uint256"
        }
      ],
      "name": "borrowNative",
      "outputs": [
        {
          "internalType": "uint256",
          "name": "",
          "type": "uint256"
        }
      ],
      "payable": false,
      "stateMutability": "nonpayable",
      "type": "function"
    },
    {
      "constant": true,
      "inputs": [],
      "name": "borrowRatePerBlock",
      "outputs": [
        {
          "internalType": "uint256",
          "name": "",
          "type": "uint256"
        }
      ],
      "payable": false,
      "stateMutability": "view",
      "type": "function"
    },
    {
      "constant": true,
      "inputs": [],
      "name": "collateralCap",
      "outputs": [
        {
          "internalType": "uint256",
          "name": "",
          "type": "uint256"
        }
      ],
      "payable": false,
      "stateMutability": "view",
      "type": "function"
    },
    {
      "constant": true,
      "inputs": [],
      "name": "comptroller",
      "outputs": [
        {
          "internalType": "contract ComptrollerInterface",
          "name": "",
          "type": "address"
        }
      ],
      "payable": false,
      "stateMutability": "view",
      "type": "function"
    },
    {
      "constant": true,
      "inputs": [],
      "name": "decimals",
      "outputs": [
        {
          "internalType": "uint8",
          "name": "",
          "type": "uint8"
        }
      ],
      "payable": false,
      "stateMutability": "view",
      "type": "function"
    },
    {
      "constant": true,
      "inputs": [
        {
          "internalType": "uint256",
          "name": "change",
          "type": "uint256"
        },
        {
          "internalType": "bool",
          "name": "repay",
          "type": "bool"
        }
      ],
      "name": "estimateBorrowRatePerBlockAfterChange",
      "outputs": [
        {
          "internalType": "uint256",
          "name": "",
          "type": "uint256"
        }
      ],
      "payable": false,
      "stateMutability": "view",
      "type": "function"
    },
    {
      "constant": true,
      "inputs": [
        {
          "internalType": "uint256",
          "name": "change",
          "type": "uint256"
        },
        {
          "internalType": "bool",
          "name": "repay",
          "type": "bool"
        }
      ],
      "name": "estimateSupplyRatePerBlockAfterChange",
      "outputs": [
        {
          "internalType": "uint256",
          "name": "",
          "type": "uint256"
        }
      ],
      "payable": false,
      "stateMutability": "view",
      "type": "function"
    },
    {
      "constant": false,
      "inputs": [],
      "name": "exchangeRateCurrent",
      "outputs": [
        {
          "internalType": "uint256",
          "name": "",
          "type": "uint256"
        }
      ],
      "payable": false,
      "stateMutability": "nonpayable",
      "type": "function"
    },
    {
      "constant": true,
      "inputs": [],
      "name": "exchangeRateStored",
      "outputs": [
        {
          "internalType": "uint256",
          "name": "",
          "type": "uint256"
        }
      ],
      "payable": false,
      "stateMutability": "view",
      "type": "function"
    },
    {
      "constant": true,
      "inputs": [
        {
          "internalType": "address",
          "name": "token",
          "type": "address"
        },
        {
          "internalType": "uint256",
          "name": "amount",
          "type": "uint256"
        }
      ],
      "name": "flashFee",
      "outputs": [
        {
          "internalType": "uint256",
          "name": "",
          "type": "uint256"
        }
      ],
      "payable": false,
      "stateMutability": "view",
      "type": "function"
    },
    {
      "constant": true,
      "inputs": [],
      "name": "flashFeeBips",
      "outputs": [
        {
          "internalType": "uint256",
          "name": "",
          "type": "uint256"
        }
      ],
      "payable": false,
      "stateMutability": "view",
      "type": "function"
    },
    {
      "constant": false,
      "inputs": [
        {
          "internalType": "contract ERC3156FlashBorrowerInterface",
          "name": "receiver",
          "type": "address"
        },
        {
          "internalType": "address",
          "name": "token",
          "type": "address"
        },
        {
          "internalType": "uint256",
          "name": "amount",
          "type": "uint256"
        },
        {
          "internalType": "bytes",
          "name": "data",
          "type": "bytes"
        }
      ],
      "name": "flashLoan",
      "outputs": [
        {
          "internalType": "bool",
          "name": "",
          "type": "bool"
        }
      ],
      "payable": false,
      "stateMutability": "nonpayable",
      "type": "function"
    },
    {
      "constant": true,
      "inputs": [
        {
          "internalType": "address",
          "name": "account",
          "type": "address"
        }
      ],
      "name": "getAccountSnapshot",
      "outputs": [
        {
          "internalType": "uint256",
          "name": "",
          "type": "uint256"
        },
        {
          "internalType": "uint256",
          "name": "",
          "type": "uint256"
        },
        {
          "internalType": "uint256",
          "name": "",
          "type": "uint256"
        },
        {
          "internalType": "uint256",
          "name": "",
          "type": "uint256"
        }
      ],
      "payable": false,
      "stateMutability": "view",
      "type": "function"
    },
    {
      "constant": true,
      "inputs": [],
      "name": "getCash",
      "outputs": [
        {
          "internalType": "uint256",
          "name": "",
          "type": "uint256"
        }
      ],
      "payable": false,
      "stateMutability": "view",
      "type": "function"
    },
    {
      "constant": true,
      "inputs": [],
      "name": "implementation",
      "outputs": [
        {
          "internalType": "address",
          "name": "",
          "type": "address"
        }
      ],
      "payable": false,
      "stateMutability": "view",
      "type": "function"
    },
    {
      "constant": false,
      "inputs": [
        {
          "internalType": "address",
          "name": "underlying_",
          "type": "address"
        },
        {
          "internalType": "contract ComptrollerInterface",
          "name": "comptroller_",
          "type": "address"
        },
        {
          "internalType": "contract InterestRateModel",
          "name": "interestRateModel_",
          "type": "address"
        },
        {
          "internalType": "uint256",
          "name": "initialExchangeRateMantissa_",
          "type": "uint256"
        },
        {
          "internalType": "string",
          "name": "name_",
          "type": "string"
        },
        {
          "internalType": "string",
          "name": "symbol_",
          "type": "string"
        },
        {
          "internalType": "uint8",
          "name": "decimals_",
          "type": "uint8"
        }
      ],
      "name": "initialize",
      "outputs": [],
      "payable": false,
      "stateMutability": "nonpayable",
      "type": "function"
    },
    {
      "constant": false,
      "inputs": [
        {
          "internalType": "contract ComptrollerInterface",
          "name": "comptroller_",
          "type": "address"
        },
        {
          "internalType": "contract InterestRateModel",
          "name": "interestRateModel_",
          "type": "address"
        },
        {
          "internalType": "uint256",
          "name": "initialExchangeRateMantissa_",
          "type": "uint256"
        },
        {
          "internalType": "string",
          "name": "name_",
          "type": "string"
        },
        {
          "internalType": "string",
          "name": "symbol_",
          "type": "string"
        },
        {
          "internalType": "uint8",
          "name": "decimals_",
          "type": "uint8"
        }
      ],
      "name": "initialize",
      "outputs": [],
      "payable": false,
      "stateMutability": "nonpayable",
      "type": "function"
    },
    {
      "constant": true,
      "inputs": [],
      "name": "interestRateModel",
      "outputs": [
        {
          "internalType": "contract InterestRateModel",
          "name": "",
          "type": "address"
        }
      ],
      "payable": false,
      "stateMutability": "view",
      "type": "function"
    },
    {
      "constant": true,
      "inputs": [],
      "name": "isCToken",
      "outputs": [
        {
          "internalType": "bool",
          "name": "",
          "type": "bool"
        }
      ],
      "payable": false,
      "stateMutability": "view",
      "type": "function"
    },
    {
      "constant": false,
      "inputs": [
        {
          "internalType": "address",
          "name": "borrower",
          "type": "address"
        },
        {
          "internalType": "uint256",
          "name": "repayAmount",
          "type": "uint256"
        },
        {
          "internalType": "contract CTokenInterface",
          "name": "cTokenCollateral",
          "type": "address"
        }
      ],
      "name": "liquidateBorrow",
      "outputs": [
        {
          "internalType": "uint256",
          "name": "",
          "type": "uint256"
        }
      ],
      "payable": false,
      "stateMutability": "nonpayable",
      "type": "function"
    },
    {
      "constant": false,
      "inputs": [
        {
          "internalType": "address",
          "name": "borrower",
          "type": "address"
        },
        {
          "internalType": "contract CTokenInterface",
          "name": "cTokenCollateral",
          "type": "address"
        }
      ],
      "name": "liquidateBorrowNative",
      "outputs": [
        {
          "internalType": "uint256",
          "name": "",
          "type": "uint256"
        }
      ],
      "payable": true,
      "stateMutability": "payable",
      "type": "function"
    },
    {
      "constant": true,
      "inputs": [
        {
          "internalType": "address",
          "name": "token",
          "type": "address"
        }
      ],
      "name": "maxFlashLoan",
      "outputs": [
        {
          "internalType": "uint256",
          "name": "",
          "type": "uint256"
        }
      ],
      "payable": false,
      "stateMutability": "view",
      "type": "function"
    },
    {
      "constant": false,
      "inputs": [
        {
          "internalType": "uint256",
          "name": "mintAmount",
          "type": "uint256"
        }
      ],
      "name": "mint",
      "outputs": [
        {
          "internalType": "uint256",
          "name": "",
          "type": "uint256"
        }
      ],
      "payable": false,
      "stateMutability": "nonpayable",
      "type": "function"
    },
    {
      "constant": false,
      "inputs": [],
      "name": "mintNative",
      "outputs": [
        {
          "internalType": "uint256",
          "name": "",
          "type": "uint256"
        }
      ],
      "payable": true,
      "stateMutability": "payable",
      "type": "function"
    },
    {
      "constant": true,
      "inputs": [],
      "name": "name",
      "outputs": [
        {
          "internalType": "string",
          "name": "",
          "type": "string"
        }
      ],
      "payable": false,
      "stateMutability": "view",
      "type": "function"
    },
    {
      "constant": true,
      "inputs": [],
      "name": "pendingAdmin",
      "outputs": [
        {
          "internalType": "address payable",
          "name": "",
          "type": "address"
        }
      ],
      "payable": false,
      "stateMutability": "view",
      "type": "function"
    },
    {
      "constant": false,
      "inputs": [
        {
          "internalType": "uint256",
          "name": "redeemTokens",
          "type": "uint256"
        }
      ],
      "name": "redeem",
      "outputs": [
        {
          "internalType": "uint256",
          "name": "",
          "type": "uint256"
        }
      ],
      "payable": false,
      "stateMutability": "nonpayable",
      "type": "function"
    },
    {
      "constant": false,
      "inputs": [
        {
          "internalType": "uint256",
          "name": "redeemTokens",
          "type": "uint256"
        }
      ],
      "name": "redeemNative",
      "outputs": [
        {
          "internalType": "uint256",
          "name": "",
          "type": "uint256"
        }
      ],
      "payable": false,
      "stateMutability": "nonpayable",
      "type": "function"
    },
    {
      "constant": false,
      "inputs": [
        {
          "internalType": "uint256",
          "name": "redeemAmount",
          "type": "uint256"
        }
      ],
      "name": "redeemUnderlying",
      "outputs": [
        {
          "internalType": "uint256",
          "name": "",
          "type": "uint256"
        }
      ],
      "payable": false,
      "stateMutability": "nonpayable",
      "type": "function"
    },
    {
      "constant": false,
      "inputs": [
        {
          "internalType": "uint256",
          "name": "redeemAmount",
          "type": "uint256"
        }
      ],
      "name": "redeemUnderlyingNative",
      "outputs": [
        {
          "internalType": "uint256",
          "name": "",
          "type": "uint256"
        }
      ],
      "payable": false,
      "stateMutability": "nonpayable",
      "type": "function"
    },
    {
      "constant": false,
      "inputs": [
        {
          "internalType": "uint256",
          "name": "repayAmount",
          "type": "uint256"
        }
      ],
      "name": "repayBorrow",
      "outputs": [
        {
          "internalType": "uint256",
          "name": "",
          "type": "uint256"
        }
      ],
      "payable": false,
      "stateMutability": "nonpayable",
      "type": "function"
    },
    {
      "constant": false,
      "inputs": [
        {
          "internalType": "address",
          "name": "borrower",
          "type": "address"
        },
        {
          "internalType": "uint256",
          "name": "repayAmount",
          "type": "uint256"
        }
      ],
      "name": "repayBorrowBehalf",
      "outputs": [
        {
          "internalType": "uint256",
          "name": "",
          "type": "uint256"
        }
      ],
      "payable": false,
      "stateMutability": "nonpayable",
      "type": "function"
    },
    {
      "constant": false,
      "inputs": [
        {
          "internalType": "address",
          "name": "borrower",
          "type": "address"
        }
      ],
      "name": "repayBorrowBehalfNative",
      "outputs": [
        {
          "internalType": "uint256",
          "name": "",
          "type": "uint256"
        }
      ],
      "payable": true,
      "stateMutability": "payable",
      "type": "function"
    },
    {
      "constant": false,
      "inputs": [],
      "name": "repayBorrowNative",
      "outputs": [
        {
          "internalType": "uint256",
          "name": "",
          "type": "uint256"
        }
      ],
      "payable": true,
      "stateMutability": "payable",
      "type": "function"
    },
    {
      "constant": true,
      "inputs": [],
      "name": "reserveFactorMantissa",
      "outputs": [
        {
          "internalType": "uint256",
          "name": "",
          "type": "uint256"
        }
      ],
      "payable": false,
      "stateMutability": "view",
      "type": "function"
    },
    {
      "constant": false,
      "inputs": [
        {
          "internalType": "address",
          "name": "liquidator",
          "type": "address"
        },
        {
          "internalType": "address",
          "name": "borrower",
          "type": "address"
        },
        {
          "internalType": "uint256",
          "name": "seizeTokens",
          "type": "uint256"
        }
      ],
      "name": "seize",
      "outputs": [
        {
          "internalType": "uint256",
          "name": "",
          "type": "uint256"
        }
      ],
      "payable": false,
      "stateMutability": "nonpayable",
      "type": "function"
    },
    {
      "constant": true,
      "inputs": [],
      "name": "supplyRatePerBlock",
      "outputs": [
        {
          "internalType": "uint256",
          "name": "",
          "type": "uint256"
        }
      ],
      "payable": false,
      "stateMutability": "view",
      "type": "function"
    },
    {
      "constant": true,
      "inputs": [],
      "name": "symbol",
      "outputs": [
        {
          "internalType": "string",
          "name": "",
          "type": "string"
        }
      ],
      "payable": false,
      "stateMutability": "view",
      "type": "function"
    },
    {
      "constant": true,
      "inputs": [],
      "name": "totalBorrows",
      "outputs": [
        {
          "internalType": "uint256",
          "name": "",
          "type": "uint256"
        }
      ],
      "payable": false,
      "stateMutability": "view",
      "type": "function"
    },
    {
      "constant": false,
      "inputs": [],
      "name": "totalBorrowsCurrent",
      "outputs": [
        {
          "internalType": "uint256",
          "name": "",
          "type": "uint256"
        }
      ],
      "payable": false,
      "stateMutability": "nonpayable",
      "type": "function"
    },
    {
      "constant": true,
      "inputs": [],
      "name": "totalCollateralTokens",
      "outputs": [
        {
          "internalType": "uint256",
          "name": "",
          "type": "uint256"
        }
      ],
      "payable": false,
      "stateMutability": "view",
      "type": "function"
    },
    {
      "constant": true,
      "inputs": [],
      "name": "totalReserves",
      "outputs": [
        {
          "internalType": "uint256",
          "name": "",
          "type": "uint256"
        }
      ],
      "payable": false,
      "stateMutability": "view",
      "type": "function"
    },
    {
      "constant": true,
      "inputs": [],
      "name": "totalSupply",
      "outputs": [
        {
          "internalType": "uint256",
          "name": "",
          "type": "uint256"
        }
      ],
      "payable": false,
      "stateMutability": "view",
      "type": "function"
    },
    {
      "constant": false,
      "inputs": [
        {
          "internalType": "address",
          "name": "dst",
          "type": "address"
        },
        {
          "internalType": "uint256",
          "name": "amount",
          "type": "uint256"
        }
      ],
      "name": "transfer",
      "outputs": [
        {
          "internalType": "bool",
          "name": "",
          "type": "bool"
        }
      ],
      "payable": false,
      "stateMutability": "nonpayable",
      "type": "function"
    },
    {
      "constant": false,
      "inputs": [
        {
          "internalType": "address",
          "name": "src",
          "type": "address"
        },
        {
          "internalType": "address",
          "name": "dst",
          "type": "address"
        },
        {
          "internalType": "uint256",
          "name": "amount",
          "type": "uint256"
        }
      ],
      "name": "transferFrom",
      "outputs": [
        {
          "internalType": "bool",
          "name": "",
          "type": "bool"
        }
      ],
      "payable": false,
      "stateMutability": "nonpayable",
      "type": "function"
    },
    {
      "constant": true,
      "inputs": [],
      "name": "underlying",
      "outputs": [
        {
          "internalType": "address",
          "name": "",
          "type": "address"
        }
      ],
      "payable": false,
      "stateMutability": "view",
      "type": "function"
    }
  ],
  "transactionHash": "0xd96c346c30c5b83d6015677fe210692a5efbbfc0b3723ead05d135882f3d02fd",
  "args": [],
  "solcInputHash": "4bb6366246927c2fb5c10b5cc74f3bba",
  "bytecode": "0x608060405234801561001057600080fd5b50615cc780620000216000396000f3fe6080604052600436106102f45760003560e01c806305dd00b81461033f57806306fdde0314610383578063095ea7b31461040d5780630e7527021461045a5780630f22688814610484578063153ab505146104b6578063173b9904146104cb57806317bfdfbc146104e057806318160ddd14610513578063182df0f51461052857806319a4dd3c1461053d5780631a31d46514610552578063219f2fe7146106b557806323b872dd146106bd5780632608f818146107005780632678224714610739578063291727a41461076a578063313ce567146107985780633af9e669146107c35780633b1d21a2146107f65780633e9410101461080b5780634576b5db1461083557806347bd3718146108685780634bf03edf1461087d57806356e67728146108a75780635c60da1b146109585780635cffe9de1461096d5780635fe3b56714610a08578063601a0bf114610a1d578063613255ab14610a475780636c540baf14610a7a5780636f307dc314610a8f57806370a0823114610aa457806373acee9814610ad7578063852a12e314610aec578063884b934314610b165780638d3f9c6214610b405780638f840ddd14610b4857806395d89b4114610b5d57806395dd919314610b7257806399d8c1b414610ba5578063a0712d6814610d00578063a6afed9514610d2a578063a9059cbb14610d3f578063aa5af0fd14610d78578063ae9d70b014610d8d578063b2a02ff114610da2578063b71d1a0c14610de5578063bd6d894d14610e18578063c37f68e214610e2d578063c5ebeaec14610e86578063d2bb18e914610eb0578063d3c5715114610ec5578063d9d98ce414610ecd578063db006a7514610f06578063dbf7692914610f30578063dd62ed3e14610f56578063dff7648414610f91578063e9c714f214610fbb578063ea11eea414610fd0578063f2b3abbd14610fe5578063f3fdb15a14611018578063f5e3c4621461102d578063f851a44014611070578063f8f9da2814611085578063fca7820b1461109a578063fe9c44ae146110c4575b6011546001600160a01b0316331461033d5760405162461bcd60e51b8152600401808060200182810382526034815260200180615bf66034913960400191505060405180910390fd5b005b34801561034b57600080fd5b506103716004803603604081101561036257600080fd5b508035906020013515156110d9565b60408051918252519081900360200190f35b34801561038f57600080fd5b506103986111be565b6040805160208082528351818301528351919283929083019185019080838360005b838110156103d25781810151838201526020016103ba565b50505050905090810190601f1680156103ff5780820380516001836020036101000a031916815260200191505b509250505060405180910390f35b34801561041957600080fd5b506104466004803603604081101561043057600080fd5b506001600160a01b03813516906020013561124b565b604080519115158252519081900360200190f35b34801561046657600080fd5b506103716004803603602081101561047d57600080fd5b50356112b6565b34801561049057600080fd5b50610371600480360360408110156104a757600080fd5b5080359060200135151561130f565b3480156104c257600080fd5b5061033d6113be565b3480156104d757600080fd5b50610371611411565b3480156104ec57600080fd5b506103716004803603602081101561050357600080fd5b50356001600160a01b0316611417565b34801561051f57600080fd5b5061037161148d565b34801561053457600080fd5b50610371611493565b34801561054957600080fd5b506103716114a3565b34801561055e57600080fd5b5061033d600480360360e081101561057557600080fd5b6001600160a01b03823581169260208101358216926040820135909216916060820135919081019060a081016080820135600160201b8111156105b757600080fd5b8201836020820111156105c957600080fd5b803590602001918460018302840111600160201b831117156105ea57600080fd5b91908080601f0160208091040260200160405190810160405280939291908181526020018383808284376000920191909152509295949360208101935035915050600160201b81111561063c57600080fd5b82018360208201111561064e57600080fd5b803590602001918460018302840111600160201b8311171561066f57600080fd5b91908080601f0160208091040260200160405190810160405280939291908181526020018383808284376000920191909152509295505050903560ff1691506114a99050565b610371611548565b3480156106c957600080fd5b50610446600480360360608110156106e057600080fd5b506001600160a01b038135811691602081013590911690604001356115a5565b34801561070c57600080fd5b506103716004803603604081101561072357600080fd5b506001600160a01b038135169060200135611617565b34801561074557600080fd5b5061074e611679565b604080516001600160a01b039092168252519081900360200190f35b6103716004803603604081101561078057600080fd5b506001600160a01b0381358116916020013516611688565b3480156107a457600080fd5b506107ad6116ee565b6040805160ff9092168252519081900360200190f35b3480156107cf57600080fd5b50610371600480360360208110156107e657600080fd5b50356001600160a01b03166116f7565b34801561080257600080fd5b50610371611746565b34801561081757600080fd5b506103716004803603602081101561082e57600080fd5b5035611750565b34801561084157600080fd5b506103716004803603602081101561085857600080fd5b50356001600160a01b03166117a5565b34801561087457600080fd5b506103716118e9565b34801561088957600080fd5b50610371600480360360208110156108a057600080fd5b50356118ef565b3480156108b357600080fd5b5061033d600480360360208110156108ca57600080fd5b810190602081018135600160201b8111156108e457600080fd5b8201836020820111156108f657600080fd5b803590602001918460018302840111600160201b8311171561091757600080fd5b91908080601f016020809104026020016040519081016040528093929190818152602001838380828437600092019190915250929550611945945050505050565b34801561096457600080fd5b5061074e611a78565b34801561097957600080fd5b506104466004803603608081101561099057600080fd5b6001600160a01b03823581169260208101359091169160408201359190810190608081016060820135600160201b8111156109ca57600080fd5b8201836020820111156109dc57600080fd5b803590602001918460018302840111600160201b831117156109fd57600080fd5b509092509050611a87565b348015610a1457600080fd5b5061074e611f62565b348015610a2957600080fd5b5061037160048036036020811015610a4057600080fd5b5035611f71565b348015610a5357600080fd5b5061037160048036036020811015610a6a57600080fd5b50356001600160a01b031661200c565b348015610a8657600080fd5b506103716120d3565b348015610a9b57600080fd5b5061074e6120d9565b348015610ab057600080fd5b5061037160048036036020811015610ac757600080fd5b50356001600160a01b03166120e8565b348015610ae357600080fd5b50610371612103565b348015610af857600080fd5b5061037160048036036020811015610b0f57600080fd5b503561216f565b348015610b2257600080fd5b5061037160048036036020811015610b3957600080fd5b50356121c9565b61037161221f565b348015610b5457600080fd5b50610371612279565b348015610b6957600080fd5b5061039861227f565b348015610b7e57600080fd5b5061037160048036036020811015610b9557600080fd5b50356001600160a01b03166122d7565b348015610bb157600080fd5b5061033d600480360360c0811015610bc857600080fd5b6001600160a01b03823581169260208101359091169160408201359190810190608081016060820135600160201b811115610c0257600080fd5b820183602082011115610c1457600080fd5b803590602001918460018302840111600160201b83111715610c3557600080fd5b91908080601f0160208091040260200160405190810160405280939291908181526020018383808284376000920191909152509295949360208101935035915050600160201b811115610c8757600080fd5b820183602082011115610c9957600080fd5b803590602001918460018302840111600160201b83111715610cba57600080fd5b91908080601f0160208091040260200160405190810160405280939291908181526020018383808284376000920191909152509295505050903560ff1691506122e29050565b348015610d0c57600080fd5b5061037160048036036020811015610d2357600080fd5b50356124e4565b348015610d3657600080fd5b50610371612536565b348015610d4b57600080fd5b5061044660048036036040811015610d6257600080fd5b506001600160a01b03813516906020013561273d565b348015610d8457600080fd5b506103716127af565b348015610d9957600080fd5b506103716127b5565b348015610dae57600080fd5b5061037160048036036060811015610dc557600080fd5b506001600160a01b03813581169160208101359091169060400135612854565b348015610df157600080fd5b5061037160048036036020811015610e0857600080fd5b50356001600160a01b03166128c5565b348015610e2457600080fd5b5061037161293f565b348015610e3957600080fd5b50610e6060048036036020811015610e5057600080fd5b50356001600160a01b03166129b1565b604080519485526020850193909352838301919091526060830152519081900360800190f35b348015610e9257600080fd5b5061037160048036036020811015610ea957600080fd5b50356129ed565b348015610ebc57600080fd5b50610371612a3c565b610371612a87565b348015610ed957600080fd5b5061037160048036036040811015610ef057600080fd5b506001600160a01b038135169060200135612adc565b348015610f1257600080fd5b5061037160048036036020811015610f2957600080fd5b5035612c23565b61037160048036036020811015610f4657600080fd5b50356001600160a01b0316612c72565b348015610f6257600080fd5b5061037160048036036040811015610f7957600080fd5b506001600160a01b0381358116916020013516612cd4565b348015610f9d57600080fd5b5061037160048036036020811015610fb457600080fd5b5035612cff565b348015610fc757600080fd5b50610371612d5e565b348015610fdc57600080fd5b50610371612e4f565b348015610ff157600080fd5b506103716004803603602081101561100857600080fd5b50356001600160a01b0316612e54565b34801561102457600080fd5b5061074e612e8e565b34801561103957600080fd5b506103716004803603606081101561105057600080fd5b506001600160a01b03813581169160208101359160409091013516612e9d565b34801561107c57600080fd5b5061074e612f05565b34801561109157600080fd5b50610371612f19565b3480156110a657600080fd5b50610371600480360360208110156110bd57600080fd5b5035612f7d565b3480156110d057600080fd5b50610446612ffb565b6000806000831561110a576110f56110ef613000565b86613080565b9150611103600b54866130b6565b905061112c565b61111b611115613000565b866130b6565b9150611129600b5486613080565b90505b600654600c54604080516315f2405360e01b815260048101869052602481018590526044810192909252516001600160a01b03909216916315f2405391606480820192602092909190829003018186803b15801561118957600080fd5b505afa15801561119d573d6000803e3d6000fd5b505050506040513d60208110156111b357600080fd5b505195945050505050565b60018054604080516020600284861615610100026000190190941693909304601f810184900484028201840190925281815292918301828280156112435780601f1061121857610100808354040283529160200191611243565b820191906000526020600020905b81548152906001019060200180831161122657829003601f168201915b505050505081565b336000818152600f602090815260408083206001600160a01b03871680855290835281842086905581518681529151939493909284927f8c5be1e5ebec7d5bd14f71427d1e84f3dd0314c0f7b2291e5b200ac8c7c3b925929081900390910190a35060019392505050565b6000806112c48360006130f0565b5090508015611309576040805162461bcd60e51b815260206004820152600c60248201526b1c995c185e4819985a5b195960a21b604482015290519081900360640190fd5b50919050565b6000806000831561133a576113256110ef613000565b9150611333600b54866130b6565b9050611356565b611345611115613000565b9150611353600b5486613080565b90505b600654600c5460085460408051635c0b440b60e11b8152600481018790526024810186905260448101939093526064830191909152516001600160a01b039092169163b816881691608480820192602092909190829003018186803b15801561118957600080fd5b60035461010090046001600160a01b0316331461140f576040805162461bcd60e51b815260206004820152600a60248201526961646d696e206f6e6c7960b01b604482015290519081900360640190fd5b565b60085481565b6000805460ff1661145c576040805162461bcd60e51b815260206004820152600a6024820152691c994b595b9d195c995960b21b604482015290519081900360640190fd5b6000805460ff1916905561146e612536565b50611478826122d7565b90505b6000805460ff19166001179055919050565b600d5481565b600061149d613170565b90505b90565b600d5490565b6114b78686868686866122e2565b601180546001600160a01b0319166001600160a01b038981169190911791829055604080516318160ddd60e01b8152905192909116916318160ddd91600480820192602092909190829003018186803b15801561151357600080fd5b505afa158015611527573d6000803e3d6000fd5b505050506040513d602081101561153d57600080fd5b505050505050505050565b6000806115563460016131d2565b50905080156115a1576040805162461bcd60e51b81526020600482015260126024820152711b5a5b9d081b985d1a5d994819985a5b195960721b604482015290519081900360640190fd5b5090565b6000805460ff166115ea576040805162461bcd60e51b815260206004820152600a6024820152691c994b595b9d195c995960b21b604482015290519081900360640190fd5b6000805460ff1916815561160033868686613237565b1490506000805460ff191660011790559392505050565b6000806116268484600061350f565b5090508015611672576040805162461bcd60e51b81526020600482015260136024820152721c995c185e4818995a185b198819985a5b1959606a1b604482015290519081900360640190fd5b5092915050565b6004546001600160a01b031681565b6000806116988434856001613590565b5090508015611672576040805162461bcd60e51b815260206004820152601e60248201527f6c697175696461746520626f72726f77206e6174697665206661696c65640000604482015290519081900360640190fd5b60035460ff1681565b6000611701615a67565b604051806020016040528061171461293f565b90526001600160a01b0384166000908152600e602052604090205490915061173d9082906136c7565b9150505b919050565b600061149d613000565b600061175d8260006136e6565b15611741576040805162461bcd60e51b8152602060048201526013602482015272185919081c995cd95c9d995cc819985a5b1959606a1b604482015290519081900360640190fd5b60035460009061010090046001600160a01b031633146117d2576117cb60016029613784565b9050611741565b60055460408051623f1ee960e11b815290516001600160a01b0392831692851691627e3dd2916004808301926020929190829003018186803b15801561181757600080fd5b505afa15801561182b573d6000803e3d6000fd5b505050506040513d602081101561184157600080fd5b5051611886576040805162461bcd60e51b815260206004820152600f60248201526e3737ba1031b7b6b83a3937b63632b960891b604482015290519081900360640190fd5b600580546001600160a01b0319166001600160a01b03858116918217909255604080519284168352602083019190915280517f7ac369dbd14fa5ea3f473ed67cc9d598964a77501540ba6751eb0b3decf5870d9281900390910190a1600061173d565b600b5481565b60006118fc8260016137ea565b15611741576040805162461bcd60e51b81526020600482015260146024820152731c995919595b481b985d1a5d994819985a5b195960621b604482015290519081900360640190fd5b60035461010090046001600160a01b03163314611996576040805162461bcd60e51b815260206004820152600a60248201526961646d696e206f6e6c7960b01b604482015290519081900360640190fd5b600554604080516344e3de7360e01b81523060048201526002602482015290516001600160a01b03909216916344e3de739160448082019260009290919082900301818387803b1580156119e957600080fd5b505af11580156119fd573d6000803e3d6000fd5b504792505081159050611a7457601160009054906101000a90046001600160a01b03166001600160a01b031663d0e30db0826040518263ffffffff1660e01b81526004016000604051808303818588803b158015611a5a57600080fd5b505af1158015611a6e573d6000803e3d6000fd5b50505050505b5050565b6012546001600160a01b031681565b6000805460ff16611acc576040805162461bcd60e51b815260206004820152600a6024820152691c994b595b9d195c995960b21b604482015290519081900360640190fd5b6000805460ff1916905583611b23576040805162461bcd60e51b81526020600482015260186024820152771a5b9d985b1a5908199b185cda1b1bd85b88185b5bdd5b9d60421b604482015290519081900360640190fd5b6011546001600160a01b03868116911614611b7c576040805162461bcd60e51b8152602060048201526014602482015273756e737570706f727465642063757272656e637960601b604482015290519081900360640190fd5b611b84612536565b506005546040516358d5bc7360e11b815230600482018181526001600160a01b038a81166024850152604484018990526080606485019081526084850188905294169363b1ab78e6938b928a928a928a92919060a401848480828437600081840152601f19601f820116905080830192505050965050505050505060206040518083038186803b158015611c1757600080fd5b505afa158015611c2b573d6000803e3d6000fd5b505050506040513d6020811015611c4157600080fd5b5051611c8a576040805162461bcd60e51b8152602060048201526013602482015272199b185cda1b1bd85b881a5cc81c185d5cd959606a1b604482015290519081900360640190fd5b6000611c94613000565b905084811015611ce4576040805162461bcd60e51b8152602060048201526016602482015275494e53554646494349454e545f4c495155494449545960501b604482015290519081900360640190fd5b6000611cf08787613864565b9050611cfe8887600061387c565b611d0a600b5487613080565b600b55604051806029615c2a82396040519081900360290181206011546323e30c8b60e01b835233600484018181526001600160a01b0392831660248601819052604486018d90526064860188905260a06084870190815260a487018c9052949650928e16946323e30c8b949293928d9289928e928e929160c401848480828437600081840152601f19601f820116905080830192505050975050505050505050602060405180830381600087803b158015611dc557600080fd5b505af1158015611dd9573d6000803e3d6000fd5b505050506040513d6020811015611def57600080fd5b505114611e3f576040805162461bcd60e51b815260206004820152601960248201527812515490cccc4d4d8e8810d85b1b189858dac819985a5b1959603a1b604482015290519081900360640190fd5b6000611e4b8783613080565b9050611e5989826000613a0e565b506000611e64613000565b9050611e708484613080565b8114611eba576040805162461bcd60e51b8152602060048201526014602482015273109053105390d157d25390d3d394d254d511539560621b604482015290519081900360640190fd5b6000611ed66040518060200160405280600854815250856136c7565b9050611ee4600c5482613080565b600c55600b54611ef4908a6130b6565b600b55604080518a81526020810186905280820183905290516001600160a01b038d16917f33c8e097c526683cbdb29adf782fac95e9d0fbe0ed635c13d8c75fdf726557d9919081900360600190a26001955050505050506000805460ff1916600117905595945050505050565b6005546001600160a01b031681565b6000805460ff16611fb6576040805162461bcd60e51b815260206004820152600a6024820152691c994b595b9d195c995960b21b604482015290519081900360640190fd5b6000805460ff19168155611fc8612536565b90508015611fee57611fe6816010811115611fdf57fe5b601d613784565b91505061147b565b611ff783613d0c565b9150506000805460ff19166001179055919050565b60115460009081906001600160a01b0384811691161480156120bd5750600554604080516358d5bc7360e11b81523060048201526000602482018190526044820185905260806064830152608482015290516001600160a01b039092169163b1ab78e69160c480820192602092909190829003018186803b15801561209057600080fd5b505afa1580156120a4573d6000803e3d6000fd5b505050506040513d60208110156120ba57600080fd5b50515b156120cd576120ca613000565b90505b92915050565b60095481565b6011546001600160a01b031681565b6001600160a01b03166000908152600e602052604090205490565b6000805460ff16612148576040805162461bcd60e51b815260206004820152600a6024820152691c994b595b9d195c995960b21b604482015290519081900360640190fd5b6000805460ff1916905561215a612536565b5050600b546000805460ff1916600117905590565b600061217c826000613e0a565b15611741576040805162461bcd60e51b81526020600482015260186024820152771c995919595b481d5b99195c9b1e5a5b99c819985a5b195960421b604482015290519081900360640190fd5b60006121d6826001613e6f565b15611741576040805162461bcd60e51b8152602060048201526014602482015273189bdc9c9bddc81b985d1a5d994819985a5b195960621b604482015290519081900360640190fd5b60008061222d3460016130f0565b50905080156115a1576040805162461bcd60e51b81526020600482015260136024820152721c995c185e481b985d1a5d994819985a5b1959606a1b604482015290519081900360640190fd5b600c5481565b6002805460408051602060018416156101000260001901909316849004601f810184900484028201840190925281815292918301828280156112435780601f1061121857610100808354040283529160200191611243565b60006120cd82613ed2565b60035461010090046001600160a01b03163314612333576040805162461bcd60e51b815260206004820152600a60248201526961646d696e206f6e6c7960b01b604482015290519081900360640190fd5b6009541580156123435750600a54155b612382576040805162461bcd60e51b815260206004820152600b60248201526a1a5b9a5d1a585b1a5e995960aa1b604482015290519081900360640190fd5b6007849055836123d1576040805162461bcd60e51b8152602060048201526015602482015274696e76616c69642065786368616e6765207261746560581b604482015290519081900360640190fd5b60006123dc876117a5565b9050801561242d576040805162461bcd60e51b81526020600482015260196024820152783330b4b632b2103a379039b2ba1031b7b6b83a3937b63632b960391b604482015290519081900360640190fd5b612435613f27565b600955670de0b6b3a7640000600a5561244d86613f2b565b90508015612496576040805162461bcd60e51b81526020600482015260116024820152706661696c656420746f207365742049524d60781b604482015290519081900360640190fd5b83516124a9906001906020870190615a7a565b5082516124bd906002906020860190615a7a565b50506003805460ff90921660ff199283161790556000805490911660011790555050505050565b6000806124f28360006131d2565b5090508015611309576040805162461bcd60e51b815260206004820152600b60248201526a1b5a5b9d0819985a5b195960aa1b604482015290519081900360640190fd5b600080612541613f27565b6009549091508082141561255a576000925050506114a0565b6000612564613000565b600b54600c54600a54600654604080516315f2405360e01b815260048101879052602481018690526044810185905290519596509394929391926000926001600160a01b03909216916315f24053916064808301926020929190829003018186803b1580156125d257600080fd5b505afa1580156125e6573d6000803e3d6000fd5b505050506040513d60208110156125fc57600080fd5b5051905065048c27395000811115612652576040805162461bcd60e51b81526020600482015260146024820152730c4dee4e4deee40e4c2e8ca40e8dede40d0d2ced60631b604482015290519081900360640190fd5b600061265e88886130b6565b9050612668615a67565b6126806040518060200160405280858152508361408e565b9050600061268e82886136c7565b9050600061269c8289613080565b905060006126bb6040518060200160405280600854815250848a6140b8565b905060006126ca85898a6140b8565b60098e9055600a819055600b849055600c839055604080518d8152602081018790528082018390526060810186905290519192507f4dec04e750ca11537cabcd8a9eab06494de08da3735bc8871cd41250e190bc04919081900360800190a160009d505050505050505050505050505090565b6000805460ff16612782576040805162461bcd60e51b815260206004820152600a6024820152691c994b595b9d195c995960b21b604482015290519081900360640190fd5b6000805460ff1916815561279833338686613237565b1490505b6000805460ff1916600117905592915050565b600a5481565b6006546000906001600160a01b031663b81688166127d1613000565b600b54600c546008546040518563ffffffff1660e01b81526004018085815260200184815260200183815260200182815260200194505050505060206040518083038186803b15801561282357600080fd5b505afa158015612837573d6000803e3d6000fd5b505050506040513d602081101561284d57600080fd5b5051905090565b6000805460ff16612899576040805162461bcd60e51b815260206004820152600a6024820152691c994b595b9d195c995960b21b604482015290519081900360640190fd5b6000805460ff191690556128af338585856140e0565b90506000805460ff191660011790559392505050565b60035460009061010090046001600160a01b031633146128eb576117cb6001602f613784565b600480546001600160a01b038481166001600160a01b031983168117909355604080519190921680825260208201939093528151600080516020615c53833981519152929181900390910190a1600061173d565b6000805460ff16612984576040805162461bcd60e51b815260206004820152600a6024820152691c994b595b9d195c995960b21b604482015290519081900360640190fd5b6000805460ff19169055612996612536565b5061299f611493565b90506000805460ff1916600117905590565b60008060008060006129c2866120e8565b905060006129cf87613ed2565b905060006129db613170565b90506000989297509095509350915050565b60006129fa826000613e6f565b15611741576040805162461bcd60e51b815260206004820152600d60248201526c189bdc9c9bddc819985a5b1959609a1b604482015290519081900360640190fd5b600554604080516302c3bcbb60e01b815230600482015290516000926001600160a01b0316916302c3bcbb916024808301926020929190829003018186803b15801561282357600080fd5b6000612a943460016136e6565b156114a0576040805162461bcd60e51b8152602060048201526013602482015272185919081c995cd95c9d995cc819985a5b1959606a1b604482015290519081900360640190fd5b6011546000906001600160a01b03848116911614612b38576040805162461bcd60e51b8152602060048201526014602482015273756e737570706f727465642063757272656e637960601b604482015290519081900360640190fd5b600554604080516358d5bc7360e11b81523060048201526000602482018190526044820186905260806064830152608482015290516001600160a01b039092169163b1ab78e69160c480820192602092909190829003018186803b158015612b9f57600080fd5b505afa158015612bb3573d6000803e3d6000fd5b505050506040513d6020811015612bc957600080fd5b5051612c12576040805162461bcd60e51b8152602060048201526013602482015272199b185cda1b1bd85b881a5cc81c185d5cd959606a1b604482015290519081900360640190fd5b612c1c8383613864565b9392505050565b6000612c308260006137ea565b15611741576040805162461bcd60e51b815260206004820152600d60248201526c1c995919595b4819985a5b1959609a1b604482015290519081900360640190fd5b600080612c818334600161350f565b5090508015611309576040805162461bcd60e51b815260206004820152601a6024820152791c995c185e4818995a185b19881b985d1a5d994819985a5b195960321b604482015290519081900360640190fd5b6001600160a01b039182166000908152600f6020908152604080832093909416825291909152205490565b6000612d0c826001613e0a565b15611741576040805162461bcd60e51b815260206004820152601f60248201527f72656465656d20756e6465726c79696e67206e6174697665206661696c656400604482015290519081900360640190fd5b6004546000906001600160a01b031633141580612d79575033155b15612d9157612d8a60016000613784565b90506114a0565b60038054600480546001600160a01b03818116610100818102610100600160a81b0319871617968790556001600160a01b031990931690935560408051948390048216808652929095041660208401528351909391927ff9ffabca9c8276e99321725bcb43fb076a6c66a54b7f21c4e8146d8519b417dc92908290030190a1600454604080516001600160a01b03808516825290921660208301528051600080516020615c538339815191529281900390910190a160009250505090565b600381565b600080612e5f612536565b90508015612e8557612e7d816010811115612e7657fe5b602a613784565b915050611741565b61173d83613f2b565b6006546001600160a01b031681565b600080612ead8585856000613590565b5090508015612efd576040805162461bcd60e51b81526020600482015260176024820152761b1a5c5d5a59185d1948189bdc9c9bddc819985a5b1959604a1b604482015290519081900360640190fd5b509392505050565b60035461010090046001600160a01b031681565b6006546000906001600160a01b03166315f24053612f35613000565b600b54600c546040518463ffffffff1660e01b815260040180848152602001838152602001828152602001935050505060206040518083038186803b15801561282357600080fd5b6000805460ff16612fc2576040805162461bcd60e51b815260206004820152600a6024820152691c994b595b9d195c995960b21b604482015290519081900360640190fd5b6000805460ff19168155612fd4612536565b90508015612ff257611fe6816010811115612feb57fe5b6030613784565b611ff783614346565b600181565b601154604080516370a0823160e01b815230600482015290516000926001600160a01b03169182916370a0823191602480820192602092909190829003018186803b15801561304e57600080fd5b505afa158015613062573d6000803e3d6000fd5b505050506040513d602081101561307857600080fd5b505191505090565b6000612c1c8383604051806040016040528060118152602001706164646974696f6e206f766572666c6f7760781b8152506143ee565b6000612c1c8383604051806040016040528060158152602001747375627472616374696f6e20756e646572666c6f7760581b815250614489565b60008054819060ff16613137576040805162461bcd60e51b815260206004820152600a6024820152691c994b595b9d195c995960b21b604482015290519081900360640190fd5b6000805460ff19169055613149612536565b50613156333386866144e3565b915091506000805460ff1916600117905590939092509050565b600d54600090806131855750506007546114a0565b600061318f613000565b905060006131aa6131a283600b54613080565b600c546130b6565b905060006131c6826040518060200160405280878152506147d5565b94506114a09350505050565b60008054819060ff16613219576040805162461bcd60e51b815260206004820152600a6024820152691c994b595b9d195c995960b21b604482015290519081900360640190fd5b6000805460ff1916905561322b612536565b506131563385856147f3565b600554604080516317b9b84b60e31b81523060048201526001600160a01b0386811660248301528581166044830152606482018590529151600093929092169163bdcdc2589160848082019260209290919082900301818787803b15801561329e57600080fd5b505af11580156132b2573d6000803e3d6000fd5b505050506040513d60208110156132c857600080fd5b505115613307576040805162461bcd60e51b81526020600482015260086024820152671c995a9958dd195960c21b604482015290519081900360640190fd5b826001600160a01b0316846001600160a01b0316141561335a576040805162461bcd60e51b8152602060048201526009602482015268189859081a5b9c1d5d60ba1b604482015290519081900360640190fd5b60006001600160a01b03868116908616141561337957506000196133a1565b506001600160a01b038085166000908152600f60209081526040808320938916835292905220545b6001600160a01b0385166000908152600e60205260409020546133c490846130b6565b6001600160a01b038087166000908152600e602052604080822093909355908616815220546133f39084613080565b6001600160a01b0385166000908152600e602052604090205560001981146134465761341f81846130b6565b6001600160a01b038087166000908152600f60209081526040808320938b16835292905220555b836001600160a01b0316856001600160a01b0316600080516020615c73833981519152856040518082815260200191505060405180910390a36005546040805163352b4a3f60e11b81523060048201526001600160a01b03888116602483015287811660448301526064820187905291519190921691636a56947e91608480830192600092919082900301818387803b1580156134e257600080fd5b505af11580156134f6573d6000803e3d6000fd5b5060009250613503915050565b9150505b949350505050565b60008054819060ff16613556576040805162461bcd60e51b815260206004820152600a6024820152691c994b595b9d195c995960b21b604482015290519081900360640190fd5b6000805460ff19169055613568612536565b50613575338686866144e3565b915091506000805460ff191660011790559094909350915050565b60008054819060ff166135d7576040805162461bcd60e51b815260206004820152600a6024820152691c994b595b9d195c995960b21b604482015290519081900360640190fd5b6000805460ff191690556135e9612536565b506000846001600160a01b031663a6afed956040518163ffffffff1660e01b8152600401602060405180830381600087803b15801561362757600080fd5b505af115801561363b573d6000803e3d6000fd5b505050506040513d602081101561365157600080fd5b50511461369e576040805162461bcd60e51b81526020600482015260166024820152751858d8dc9d59481a5b9d195c995cdd0819985a5b195960521b604482015290519081900360640190fd5b6136ab3387878787614ad5565b915091506000805460ff19166001179055909590945092505050565b60006136d1615a67565b6136db848461408e565b9050613507816151de565b6000805460ff1661372b576040805162461bcd60e51b815260206004820152600a6024820152691c994b595b9d195c995960b21b604482015290519081900360640190fd5b6000805460ff1916815561373d612536565b905080156137635761375b81601081111561375457fe5b6036613784565b91505061279c565b61376d84846151ed565b509150506000805460ff1916600117905592915050565b60007f45b96fe442630264581b197e84bbada861235052c5a1aadfff9ea4e40a969aa08360108111156137b357fe5b8360388111156137bf57fe5b604080519283526020830191909152600082820152519081900360600190a1826010811115612c1c57fe5b6000805460ff1661382f576040805162461bcd60e51b815260206004820152600a6024820152691c994b595b9d195c995960b21b604482015290519081900360640190fd5b6000805460ff19169055613841612536565b5061384f338460008561528b565b90506000805460ff1916600117905592915050565b6000612c1c613874836003615641565b61271061567d565b80156139235760115460408051632e1a7d4d60e01b81526004810185905290516001600160a01b0390921691632e1a7d4d9160248082019260009290919082900301818387803b1580156138cf57600080fd5b505af11580156138e3573d6000803e3d6000fd5b50506040516001600160a01b038616925084156108fc02915084906000818181858888f1935050505015801561391d573d6000803e3d6000fd5b50613a09565b6011546040805163a9059cbb60e01b81526001600160a01b0386811660048301526024820186905291519190921691829163a9059cbb9160448082019260009290919082900301818387803b15801561397b57600080fd5b505af115801561398f573d6000803e3d6000fd5b5050505060003d600081146139ab57602081146139b557600080fd5b60001991506139c1565b60206000803e60005191505b5080613a06576040805162461bcd60e51b815260206004820152600f60248201526e1d1c985b9cd9995c8819985a5b1959608a1b604482015290519081900360640190fd5b50505b505050565b60008115613b1b57336001600160a01b03851614613a65576040805162461bcd60e51b815260206004820152600f60248201526e0e6cadcc8cae440dad2e6dac2e8c6d608b1b604482015290519081900360640190fd5b823414613aaa576040805162461bcd60e51b815260206004820152600e60248201526d0ecc2d8eaca40dad2e6dac2e8c6d60931b604482015290519081900360640190fd5b601160009054906101000a90046001600160a01b03166001600160a01b031663d0e30db0846040518263ffffffff1660e01b81526004016000604051808303818588803b158015613afa57600080fd5b505af1158015613b0e573d6000803e3d6000fd5b5050505050829050612c1c565b601154604080516370a0823160e01b815230600482015290516001600160a01b039092169160009183916370a0823191602480820192602092909190829003018186803b158015613b6b57600080fd5b505afa158015613b7f573d6000803e3d6000fd5b505050506040513d6020811015613b9557600080fd5b5051604080516323b872dd60e01b81526001600160a01b038981166004830152306024830152604482018990529151929350908416916323b872dd9160648082019260009290919082900301818387803b158015613bf257600080fd5b505af1158015613c06573d6000803e3d6000fd5b5050505060003d60008114613c225760208114613c2c57600080fd5b6000199150613c38565b60206000803e60005191505b5080613c7d576040805162461bcd60e51b815260206004820152600f60248201526e1d1c985b9cd9995c8819985a5b1959608a1b604482015290519081900360640190fd5b601154604080516370a0823160e01b815230600482015290516000926001600160a01b0316916370a08231916024808301926020929190829003018186803b158015613cc857600080fd5b505afa158015613cdc573d6000803e3d6000fd5b505050506040513d6020811015613cf257600080fd5b50519050613d0081846130b6565b98975050505050505050565b600354600090819061010090046001600160a01b03163314613d3457612e7d6001601e613784565b613d3c613f27565b60095414613d5057612e7d600a6020613784565b82613d59613000565b1015613d6b57612e7d600e601f613784565b600c54831115613d8157612e7d60026021613784565b613d8d600c54846130b6565b600c819055600354909150613db29061010090046001600160a01b031684600061387c565b600354604080516101009092046001600160a01b0316825260208201859052818101839052517f3bad0c59cf2f06e7314077049f48a93578cd16f5ef92329f1dab1420a99c177e916060908290030190a1600061173d565b6000805460ff16613e4f576040805162461bcd60e51b815260206004820152600a6024820152691c994b595b9d195c995960b21b604482015290519081900360640190fd5b6000805460ff19169055613e61612536565b5061384f336000858561528b565b6000805460ff16613eb4576040805162461bcd60e51b815260206004820152600a6024820152691c994b595b9d195c995960b21b604482015290519081900360640190fd5b6000805460ff19169055613ec6612536565b5061384f3384846156b0565b6001600160a01b03811660009081526010602052604081208054613efa576000915050611741565b6000613f0c8260000154600a54615641565b90506000613f1e82846001015461567d565b95945050505050565b4290565b600354600090819061010090046001600160a01b03163314613f5357612e7d6001602c613784565b613f5b613f27565b60095414613f6f57612e7d600a602b613784565b600660009054906101000a90046001600160a01b03169050826001600160a01b0316632191f92a6040518163ffffffff1660e01b815260040160206040518083038186803b158015613fc057600080fd5b505afa158015613fd4573d6000803e3d6000fd5b505050506040513d6020811015613fea57600080fd5b505161402b576040805162461bcd60e51b815260206004820152600b60248201526a696e76616c69642049524d60a81b604482015290519081900360640190fd5b600680546001600160a01b0319166001600160a01b03858116918217909255604080519284168352602083019190915280517fedffc32e068c7c95dfd4bdfd5c4d939a084d6b11c4199eac8436ed234d72f9269281900390910190a1600061173d565b614096615a67565b60405180602001604052806140af856000015185615641565b90529392505050565b60006140c2615a67565b6140cc858561408e565b9050613f1e6140da826151de565b84613080565b6005546040805163d02f735160e01b81523060048201526001600160a01b03878116602483015286811660448301528581166064830152608482018590529151600093929092169163d02f73519160a48082019260209290919082900301818787803b15801561414f57600080fd5b505af1158015614163573d6000803e3d6000fd5b505050506040513d602081101561417957600080fd5b5051156141b8576040805162461bcd60e51b81526020600482015260086024820152671c995a9958dd195960c21b604482015290519081900360640190fd5b816141c557506000613507565b836001600160a01b0316836001600160a01b03161415614223576040805162461bcd60e51b815260206004820152601460248201527334b73b30b634b21030b1b1b7bab73a103830b4b960611b604482015290519081900360640190fd5b6001600160a01b0383166000908152600e602052604090205461424690836130b6565b6001600160a01b038085166000908152600e602052604080822093909355908616815220546142759083613080565b6001600160a01b038086166000818152600e60209081526040918290209490945580518681529051919392871692600080516020615c7383398151915292918290030190a360055460408051636d35bf9160e01b81523060048201526001600160a01b038881166024830152878116604483015286811660648301526084820186905291519190921691636d35bf919160a480830192600092919082900301818387803b15801561432557600080fd5b505af1158015614339573d6000803e3d6000fd5b5060009250613f1e915050565b60035460009061010090046001600160a01b0316331461436c576117cb60016031613784565b614374613f27565b60095414614388576117cb600a6032613784565b670de0b6b3a76400008211156143a4576117cb60026033613784565b6008805490839055604080518281526020810185905281517faaa68312e2ea9d50e16af5068410ab56e1a1fd06037b1a35664812c30f821460929181900390910190a1600061173d565b600083830182858210156144805760405162461bcd60e51b81526004018080602001828103825283818151815260200191508051906020019080838360005b8381101561444557818101518382015260200161442d565b50505050905090810190601f1680156144725780820380516001836020036101000a031916815260200191505b509250505060405180910390fd5b50949350505050565b600081848411156144db5760405162461bcd60e51b815260206004820181815283516024840152835190928392604490910191908501908083836000831561444557818101518382015260200161442d565b505050900390565b60055460408051631200453160e11b81523060048201526001600160a01b0387811660248301528681166044830152606482018690529151600093849316916324008a6291608480830192602092919082900301818787803b15801561454857600080fd5b505af115801561455c573d6000803e3d6000fd5b505050506040513d602081101561457257600080fd5b5051156145b1576040805162461bcd60e51b81526020600482015260086024820152671c995a9958dd195960c21b604482015290519081900360640190fd5b6145b9613f27565b60095414614600576040805162461bcd60e51b815260206004820152600f60248201526e6d61726b6574206973207374616c6560881b604482015290519081900360640190fd5b614608615af4565b6001600160a01b038616600090815260106020526040902060010154606082015261463286613ed2565b60808201526000198514156146505760808101516040820152614658565b604081018590525b61466787826040015186613a0e565b60e08201819052608082015161467c916130b6565b60a0820152600b5460e082015161469391906130b6565b60c0820190815260a080830180516001600160a01b03808b16600081815260106020908152604091829020948555600a546001909501949094559551600b81905560e088015194518751938f16845293830191909152818601939093526060810191909152608081019190915291517f1a2a22cb034d26d1854bdc6666a5b91fe25efbbb5dcad3b0355478d6f5c362a19281900390910190a160055460e0820151606083015160408051631ededc9160e01b81523060048201526001600160a01b038c811660248301528b8116604483015260648201949094526084810192909252519190921691631ededc919160a480830192600092919082900301818387803b1580156147a157600080fd5b505af11580156147b5573d6000803e3d6000fd5b50600092506147c2915050565b8160e00151925092505094509492505050565b6000612c1c6147ec84670de0b6b3a7640000615641565b835161567d565b60055460408051634ef4c3e160e01b81523060048201526001600160a01b03868116602483015260448201869052915160009384931691634ef4c3e191606480830192602092919082900301818787803b15801561485057600080fd5b505af1158015614864573d6000803e3d6000fd5b505050506040513d602081101561487a57600080fd5b5051156148b9576040805162461bcd60e51b81526020600482015260086024820152671c995a9958dd195960c21b604482015290519081900360640190fd5b836148c957506000905080614acd565b6148d1613f27565b60095414614918576040805162461bcd60e51b815260206004820152600f60248201526e6d61726b6574206973207374616c6560881b604482015290519081900360640190fd5b614920615b3a565b614928613170565b8152614935868686613a0e565b604080830182905280516020810190915282518152614954919061593e565b60208201819052600d5461496791613080565b600d556001600160a01b0386166000908152600e6020908152604090912054908201516149949190613080565b6001600160a01b0387166000818152600e60209081526040918290209390935583810151848401518251938452938301528181019290925290517f4c209b5fc8ad50758f13e2e1088ba56a560dff690a1c6fef26394f4c03821c4f9181900360600190a1856001600160a01b0316306001600160a01b0316600080516020615c7383398151915283602001516040518082815260200191505060405180910390a3600554604080830151602084015182516341c728b960e01b81523060048201526001600160a01b038b811660248301526044820193909352606481019190915291519216916341c728b99160848082019260009290919082900301818387803b158015614aa157600080fd5b505af1158015614ab5573d6000803e3d6000fd5b5060009250614ac2915050565b816040015192509250505b935093915050565b60055460408051632fe3f38f60e11b81523060048201526001600160a01b0385811660248301528881166044830152878116606483015260848201879052915160009384931691635fc7e71e9160a480830192602092919082900301818787803b158015614b4257600080fd5b505af1158015614b56573d6000803e3d6000fd5b505050506040513d6020811015614b6c57600080fd5b505115614bab576040805162461bcd60e51b81526020600482015260086024820152671c995a9958dd195960c21b604482015290519081900360640190fd5b614bb3613f27565b60095414614bfa576040805162461bcd60e51b815260206004820152600f60248201526e6d61726b6574206973207374616c6560881b604482015290519081900360640190fd5b614c02613f27565b846001600160a01b0316636c540baf6040518163ffffffff1660e01b815260040160206040518083038186803b158015614c3b57600080fd5b505afa158015614c4f573d6000803e3d6000fd5b505050506040513d6020811015614c6557600080fd5b505114614cab576040805162461bcd60e51b815260206004820152600f60248201526e6d61726b6574206973207374616c6560881b604482015290519081900360640190fd5b866001600160a01b0316866001600160a01b03161415614d09576040805162461bcd60e51b815260206004820152601460248201527334b73b30b634b21030b1b1b7bab73a103830b4b960611b604482015290519081900360640190fd5b600085118015614d1b57506000198514155b614d6c576040805162461bcd60e51b815260206004820152601e60248201527f696e76616c696420636c6f736520616d6f756e74207265717565737465640000604482015290519081900360640190fd5b614d74615b5b565b614d80888888876144e3565b602083015280825215614dd0576040805162461bcd60e51b81526020600482015260136024820152721c995c185e48189bdc9c9bddc819985a5b1959606a1b604482015290519081900360640190fd5b60055460208201516040805163c488847b60e01b81523060048201526001600160a01b03898116602483015260448201939093528151929093169263c488847b9260648083019392829003018186803b158015614e2c57600080fd5b505afa158015614e40573d6000803e3d6000fd5b505050506040513d6040811015614e5657600080fd5b50805160209091015160608301526040820181905215614ebd576040805162461bcd60e51b815260206004820181905260248201527f6661696c656420746f2063616c63756c617465207365697a6520616d6f756e74604482015290519081900360640190fd5b8060600151856001600160a01b03166370a08231896040518263ffffffff1660e01b815260040180826001600160a01b03166001600160a01b0316815260200191505060206040518083038186803b158015614f1857600080fd5b505afa158015614f2c573d6000803e3d6000fd5b505050506040513d6020811015614f4257600080fd5b50511015614f92576040805162461bcd60e51b815260206004820152601860248201527709892a2aa928882a88abea68a92b48abea89e9ebe9aaa86960431b604482015290519081900360640190fd5b60006001600160a01b038616301415614fbc57614fb5308a8a85606001516140e0565b905061504c565b60608201516040805163b2a02ff160e01b81526001600160a01b038c811660048301528b81166024830152604482019390935290519188169163b2a02ff1916064808201926020929091908290030181600087803b15801561501d57600080fd5b505af1158015615031573d6000803e3d6000fd5b505050506040513d602081101561504757600080fd5b505190505b8015615096576040805162461bcd60e51b81526020600482015260146024820152731d1bdad95b881cd95a5e9d5c994819985a5b195960621b604482015290519081900360640190fd5b7f298637f684da70674f26509b10f07ec2fbc77a335ab1e7d6215a4b2484d8bb528989846020015189866060015160405180866001600160a01b03166001600160a01b03168152602001856001600160a01b03166001600160a01b03168152602001848152602001836001600160a01b03166001600160a01b031681526020018281526020019550505050505060405180910390a160055460208301516060840151604080516347ef3b3b60e01b81523060048201526001600160a01b038b811660248301528e811660448301528d81166064830152608482019490945260a48101929092525191909216916347ef3b3b9160c480830192600092919082900301818387803b1580156151a857600080fd5b505af11580156151bc573d6000803e3d6000fd5b50600092506151c9915050565b82602001519350935050509550959350505050565b51670de0b6b3a7640000900490565b6000806000806151fb613f27565b6009541461521a5761520f600a6037613784565b935091506152849050565b615225338787613a0e565b9050615233600c5482613080565b600c819055604080513381526020810184905280820183905290519193507fa91e67c5ea634cd43a12c5a482724b03de01e85ca68702a53d0c2f45cb7c1dc5919081900360600190a1600093509150505b9250929050565b6000831580615298575082155b6152d5576040805162461bcd60e51b8152602060048201526009602482015268189859081a5b9c1d5d60ba1b604482015290519081900360640190fd5b6152dd615b83565b6152e5613170565b815284156153165760208082018690526040805191820190528151815261530c90866136c7565b604082015261533f565b615332846040518060200160405280846000015181525061593e565b6020820152604081018490525b6005546020808301516040805163eabe7d9160e01b81523060048201526001600160a01b038b8116602483015260448201939093529051919093169263eabe7d919260648083019391928290030181600087803b15801561539f57600080fd5b505af11580156153b3573d6000803e3d6000fd5b505050506040513d60208110156153c957600080fd5b505115615408576040805162461bcd60e51b81526020600482015260086024820152671c995a9958dd195960c21b604482015290519081900360640190fd5b84158015615414575083155b15615423576000915050613507565b61542b613f27565b60095414615472576040805162461bcd60e51b815260206004820152600f60248201526e6d61726b6574206973207374616c6560881b604482015290519081900360640190fd5b615482600d5482602001516130b6565b60608201526001600160a01b0386166000908152600e6020908152604090912054908201516154b191906130b6565b608082015260408101516154c3613000565b101561550a576040805162461bcd60e51b81526020600482015260116024820152700d2dce6eaccccd2c6d2cadce840c6c2e6d607b1b604482015290519081900360640190fd5b6060810151600d5560808101516001600160a01b0387166000908152600e602052604090819020919091558101516155449087908561387c565b306001600160a01b0316866001600160a01b0316600080516020615c7383398151915283602001516040518082815260200191505060405180910390a360408082015160208084015183516001600160a01b038b168152918201929092528083019190915290517fe5b754fb1abb7f01b499791d0b820ae3b6af3424ac1c59768edb53f4ec31a9299181900360600190a1600554604080830151602084015182516351dff98960e01b81523060048201526001600160a01b038b811660248301526044820193909352606481019190915291519216916351dff9899160848082019260009290919082900301818387803b1580156134e257600080fd5b6000612c1c8383604051806040016040528060178152602001766d756c7469706c69636174696f6e206f766572666c6f7760481b815250615952565b6000612c1c83836040518060400160405280600e81526020016d646976696465206279207a65726f60901b8152506159c8565b6005546040805163368f515360e21b81523060048201526001600160a01b038681166024830152604482018690529151600093929092169163da3d454c9160648082019260209290919082900301818787803b15801561570f57600080fd5b505af1158015615723573d6000803e3d6000fd5b505050506040513d602081101561573957600080fd5b505115615778576040805162461bcd60e51b81526020600482015260086024820152671c995a9958dd195960c21b604482015290519081900360640190fd5b615780613f27565b600954146157c7576040805162461bcd60e51b815260206004820152600f60248201526e6d61726b6574206973207374616c6560881b604482015290519081900360640190fd5b826157d0613000565b1015615817576040805162461bcd60e51b81526020600482015260116024820152700d2dce6eaccccd2c6d2cadce840c6c2e6d607b1b604482015290519081900360640190fd5b61581f615bb2565b61582885613ed2565b602082018190526158399085613080565b6040820152600b5461584b9085613080565b606082019081526040808301516001600160a01b0388166000908152601060205291909120908155600a5460019091015551600b5561588b85858561387c565b60408082015160608084015183516001600160a01b038a16815260208101899052808501939093529082015290517f13ed6866d4e1ee6da46f845c46d7e54120883d75c5ea9a2dacc1c4ca8984ab809181900360800190a160055460408051635c77860560e01b81523060048201526001600160a01b0388811660248301526044820188905291519190921691635c77860591606480830192600092919082900301818387803b15801561432557600080fd5b6000615948615a67565b6136db8484615a2a565b600083158061595f575082155b1561596c57506000612c1c565b8383028385828161597957fe5b041483906144805760405162461bcd60e51b815260206004820181815283516024840152835190928392604490910191908501908083836000831561444557818101518382015260200161442d565b60008183615a175760405162461bcd60e51b815260206004820181815283516024840152835190928392604490910191908501908083836000831561444557818101518382015260200161442d565b50828481615a2157fe5b04949350505050565b615a32615a67565b6000615a46670de0b6b3a764000085615641565b90506040518060200160405280615a5d83866147d5565b9052949350505050565b6040518060200160405280600081525090565b828054600181600116156101000203166002900490600052602060002090601f016020900481019282601f10615abb57805160ff1916838001178555615ae8565b82800160010185558215615ae8579182015b82811115615ae8578251825591602001919060010190615acd565b506115a1929150615bdb565b6040805161010081019091528060008152602001600081526020016000815260200160008152602001600081526020016000815260200160008152602001600081525090565b60405180606001604052806000815260200160008152602001600081525090565b6040518060800160405280600081526020016000815260200160008152602001600081525090565b6040518060a0016040528060008152602001600081526020016000815260200160008152602001600081525090565b604080516080810190915280600081526020016000815260200160008152602001600081525090565b6114a091905b808211156115a15760008155600101615be156fe6f6e6c792077726170706564206e617469766520636f6e747261637420636f756c642073656e64206e617469766520746f6b656e45524333313536466c617368426f72726f776572496e746572666163652e6f6e466c6173684c6f616eca4f2f25d0898edd99413412fb94012f9e54ec8142f9b093e7720646a95b16a9ddf252ad1be2c89b69c2b068fc378daa952ba7f163c4a11628f55a4df523b3efa265627a7a72315820413e41cab0c2ec3111fb629ffb2309baa800cf6da1613117ffa904788b8d2ea864736f6c63430005100032",
  "devdoc": {
    "author": "Cream",
    "methods": {
      "_acceptAdmin()": {
        "details": "Admin function for pending admin to accept role and update admin",
        "return": "uint 0=success, otherwise a failure (see ErrorReporter.sol for details)"
      },
      "_addReserves(uint256)": {
        "details": "Accrues interest whether or not the operation succeeds, unless reverted Keep return in the function signature for backward compatibility",
        "params": {
          "addAmount": "The amount fo underlying token to add as reserves"
        },
        "return": "uint 0=success, otherwise a failure (see ErrorReporter.sol for details)"
      },
      "_addReservesNative()": {
        "details": "Accrues interest whether or not the operation succeeds, unless reverted Keep return in the function signature for consistency",
        "return": "uint 0=success, otherwise a failure (see ErrorReporter.sol for details)"
      },
      "_becomeImplementation(bytes)": {
        "params": {
          "data": "The encoded bytes data for any initialization"
        }
      },
      "_reduceReserves(uint256)": {
        "params": {
          "reduceAmount": "Amount of reduction to reserves"
        },
        "return": "uint 0=success, otherwise a failure (see ErrorReporter.sol for details)"
      },
      "_setComptroller(address)": {
        "details": "Admin function to set a new comptroller",
        "return": "uint 0=success, otherwise a failure (see ErrorReporter.sol for details)"
      },
      "_setInterestRateModel(address)": {
        "details": "Admin function to accrue interest and update the interest rate model",
        "params": {
          "newInterestRateModel": "the new interest rate model to use"
        },
        "return": "uint 0=success, otherwise a failure (see ErrorReporter.sol for details)"
      },
      "_setPendingAdmin(address)": {
        "details": "Admin function to begin change of admin. The newPendingAdmin must call `_acceptAdmin` to finalize the transfer.",
        "params": {
          "newPendingAdmin": "New pending admin."
        },
        "return": "uint 0=success, otherwise a failure (see ErrorReporter.sol for details)"
      },
      "_setReserveFactor(uint256)": {
        "details": "Admin function to accrue interest and set a new reserve factor",
        "return": "uint 0=success, otherwise a failure (see ErrorReporter.sol for details)"
      },
      "accrueInterest()": {
        "details": "This calculates interest accrued from the last checkpointed block  up to the current block and writes new checkpoint to storage."
      },
      "allowance(address,address)": {
        "params": {
          "owner": "The address of the account which owns the tokens to be spent",
          "spender": "The address of the account which may transfer tokens"
        },
        "return": "The number of tokens allowed to be spent (-1 means infinite)"
      },
      "approve(address,uint256)": {
        "details": "This will overwrite the approval amount for `spender` and is subject to issues noted [here](https://eips.ethereum.org/EIPS/eip-20#approve)",
        "params": {
          "amount": "The number of tokens that are approved (-1 means infinite)",
          "spender": "The address of the account which may transfer tokens"
        },
        "return": "Whether or not the approval succeeded"
      },
      "balanceOf(address)": {
        "params": {
          "owner": "The address of the account to query"
        },
        "return": "The number of tokens owned by `owner`"
      },
      "balanceOfUnderlying(address)": {
        "details": "This also accrues interest in a transaction",
        "params": {
          "owner": "The address of the account to query"
        },
        "return": "The amount of underlying owned by `owner`"
      },
      "borrow(uint256)": {
        "details": "Accrues interest whether or not the operation succeeds, unless reverted Keep return in the function signature for backward compatibility",
        "params": {
          "borrowAmount": "The amount of the underlying asset to borrow"
        },
        "return": "uint 0=success, otherwise a failure (see ErrorReporter.sol for details)"
      },
      "borrowBalanceCurrent(address)": {
        "params": {
          "account": "The address whose balance should be calculated after updating borrowIndex"
        },
        "return": "The calculated balance"
      },
      "borrowBalanceStored(address)": {
        "params": {
          "account": "The address whose balance should be calculated"
        },
        "return": "The calculated balance"
      },
      "borrowNative(uint256)": {
        "details": "Accrues interest whether or not the operation succeeds, unless reverted Keep return in the function signature for consistency",
        "params": {
          "borrowAmount": "The amount of the underlying asset to borrow"
        },
        "return": "uint 0=success, otherwise a failure (see ErrorReporter.sol for details)"
      },
      "borrowRatePerBlock()": {
        "return": "The borrow interest rate per block, scaled by 1e18"
      },
      "collateralCap()": {
        "details": "CWrappedNative doesn't have the collateral cap functionality. Return the supply cap for interface consistency.",
        "return": "the supply cap of this market"
      },
      "estimateBorrowRatePerBlockAfterChange(uint256,bool)": {
        "return": "The borrow interest rate per block, scaled by 1e18"
      },
      "estimateSupplyRatePerBlockAfterChange(uint256,bool)": {
        "return": "The supply interest rate per block, scaled by 1e18"
      },
      "exchangeRateCurrent()": {
        "return": "Calculated exchange rate scaled by 1e18"
      },
      "exchangeRateStored()": {
        "details": "This function does not accrue interest before calculating the exchange rate",
        "return": "Calculated exchange rate scaled by 1e18"
      },
      "flashFee(address,uint256)": {
        "params": {
          "amount": "amount of token to borrow",
          "token": "The loan currency. Must match the address of this contract's underlying."
        },
        "return": "The amount of `token` to be charged for the loan, on top of the returned principal."
      },
      "flashLoan(address,address,uint256,bytes)": {
        "params": {
          "amount": "The amount of the funds to be loaned",
          "data": "The other data",
          "receiver": "The receiver address for the funds",
          "token": "The loan currency. Must match the address of this contract's underlying."
        },
        "return": "uint 0=success, otherwise a failure (see ErrorReporter.sol for details)"
      },
      "getAccountSnapshot(address)": {
        "details": "This is used by comptroller to more efficiently perform liquidity checks.",
        "params": {
          "account": "Address of the account to snapshot"
        },
        "return": "(possible error, token balance, borrow balance, exchange rate mantissa)"
      },
      "getCash()": {
        "return": "The quantity of underlying asset owned by this contract"
      },
      "initialize(address,address,address,uint256,string,string,uint8)": {
        "params": {
          "comptroller_": "The address of the Comptroller",
          "decimals_": "ERC-20 decimal precision of this token",
          "initialExchangeRateMantissa_": "The initial exchange rate, scaled by 1e18",
          "interestRateModel_": "The address of the interest rate model",
          "name_": "ERC-20 name of this token",
          "symbol_": "ERC-20 symbol of this token",
          "underlying_": "The address of the underlying asset"
        }
      },
      "initialize(address,address,uint256,string,string,uint8)": {
        "params": {
          "comptroller_": "The address of the Comptroller",
          "decimals_": "EIP-20 decimal precision of this token",
          "initialExchangeRateMantissa_": "The initial exchange rate, scaled by 1e18",
          "interestRateModel_": "The address of the interest rate model",
          "name_": "EIP-20 name of this token",
          "symbol_": "EIP-20 symbol of this token"
        }
      },
      "liquidateBorrow(address,uint256,address)": {
        "details": "Accrues interest whether or not the operation succeeds, unless reverted Keep return in the function signature for backward compatibility",
        "params": {
          "borrower": "The borrower of this cToken to be liquidated",
          "cTokenCollateral": "The market in which to seize collateral from the borrower",
          "repayAmount": "The amount of the underlying borrowed asset to repay"
        },
        "return": "uint 0=success, otherwise a failure (see ErrorReporter.sol for details)"
      },
      "liquidateBorrowNative(address,address)": {
        "details": "Accrues interest whether or not the operation succeeds, unless reverted Keep return in the function signature for consistency",
        "params": {
          "borrower": "The borrower of this cToken to be liquidated",
          "cTokenCollateral": "The market in which to seize collateral from the borrower"
        },
        "return": "uint 0=success, otherwise a failure (see ErrorReporter.sol for details)"
      },
      "maxFlashLoan(address)": {
        "details": "The amount of currency available to be lent.",
        "params": {
          "token": "The loan currency."
        },
        "return": "The amount of `token` that can be borrowed."
      },
      "mint(uint256)": {
        "details": "Accrues interest whether or not the operation succeeds, unless reverted Keep return in the function signature for backward compatibility",
        "params": {
          "mintAmount": "The amount of the underlying asset to supply"
        },
        "return": "uint 0=success, otherwise a failure (see ErrorReporter.sol for details)"
      },
      "mintNative()": {
        "details": "Accrues interest whether or not the operation succeeds, unless reverted Keep return in the function signature for consistency",
        "return": "uint 0=success, otherwise a failure (see ErrorReporter.sol for details)"
      },
      "redeem(uint256)": {
        "details": "Accrues interest whether or not the operation succeeds, unless reverted Keep return in the function signature for backward compatibility",
        "params": {
          "redeemTokens": "The number of cTokens to redeem into underlying"
        },
        "return": "uint 0=success, otherwise a failure (see ErrorReporter.sol for details)"
      },
      "redeemNative(uint256)": {
        "details": "Accrues interest whether or not the operation succeeds, unless reverted Keep return in the function signature for consistency",
        "params": {
          "redeemTokens": "The number of cTokens to redeem into underlying"
        },
        "return": "uint 0=success, otherwise a failure (see ErrorReporter.sol for details)"
      },
      "redeemUnderlying(uint256)": {
        "details": "Accrues interest whether or not the operation succeeds, unless reverted Keep return in the function signature for backward compatibility",
        "params": {
          "redeemAmount": "The amount of underlying to redeem"
        },
        "return": "uint 0=success, otherwise a failure (see ErrorReporter.sol for details)"
      },
      "redeemUnderlyingNative(uint256)": {
        "details": "Accrues interest whether or not the operation succeeds, unless reverted Keep return in the function signature for consistency",
        "params": {
          "redeemAmount": "The amount of underlying to redeem"
        },
        "return": "uint 0=success, otherwise a failure (see ErrorReporter.sol for details)"
      },
      "repayBorrow(uint256)": {
        "details": "Accrues interest whether or not the operation succeeds, unless reverted Keep return in the function signature for backward compatibility",
        "params": {
          "repayAmount": "The amount to repay"
        },
        "return": "uint 0=success, otherwise a failure (see ErrorReporter.sol for details)"
      },
      "repayBorrowBehalf(address,uint256)": {
        "params": {
          "borrower": "the account with the debt being payed off",
          "repayAmount": "The amount to repay"
        },
        "return": "uint 0=success, otherwise a failure (see ErrorReporter.sol for details)"
      },
      "repayBorrowBehalfNative(address)": {
        "params": {
          "borrower": "the account with the debt being payed off"
        },
        "return": "uint 0=success, otherwise a failure (see ErrorReporter.sol for details)"
      },
      "repayBorrowNative()": {
        "details": "Accrues interest whether or not the operation succeeds, unless reverted Keep return in the function signature for consistency",
        "return": "uint 0=success, otherwise a failure (see ErrorReporter.sol for details)"
      },
      "seize(address,address,uint256)": {
        "details": "Will fail unless called by another cToken during the process of liquidation. Its absolutely critical to use msg.sender as the borrowed cToken and not a parameter.",
        "params": {
          "borrower": "The account having collateral seized",
          "liquidator": "The account receiving seized collateral",
          "seizeTokens": "The number of cTokens to seize"
        },
        "return": "uint 0=success, otherwise a failure (see ErrorReporter.sol for details)"
      },
      "supplyRatePerBlock()": {
        "return": "The supply interest rate per block, scaled by 1e18"
      },
      "totalBorrowsCurrent()": {
        "return": "The total borrows with interest"
      },
      "totalCollateralTokens()": {
        "details": "CWrappedNative doesn't have the collateral cap functionality. Return the total supply for interface consistency.",
        "return": "the total supply of this market"
      },
      "transfer(address,uint256)": {
        "params": {
          "amount": "The number of tokens to transfer",
          "dst": "The address of the destination account"
        },
        "return": "Whether or not the transfer succeeded"
      },
      "transferFrom(address,address,uint256)": {
        "params": {
          "amount": "The number of tokens to transfer",
          "dst": "The address of the destination account",
          "src": "The address of the source account"
        },
        "return": "Whether or not the transfer succeeded"
      }
    },
    "title": "Cream's CWrappedNativeDelegate Contract"
  },
  "userdoc": {
    "methods": {
      "_acceptAdmin()": {
        "notice": "Accepts transfer of admin rights. msg.sender must be pendingAdmin"
      },
      "_addReserves(uint256)": {
        "notice": "The sender adds to reserves."
      },
      "_addReservesNative()": {
        "notice": "The sender adds to reserves."
      },
      "_becomeImplementation(bytes)": {
        "notice": "Called by the delegator on a delegate to initialize it for duty"
      },
      "_reduceReserves(uint256)": {
        "notice": "Accrues interest and reduces reserves by transferring to admin"
      },
      "_resignImplementation()": {
        "notice": "Called by the delegator on a delegate to forfeit its responsibility"
      },
      "_setComptroller(address)": {
        "notice": "Sets a new comptroller for the market"
      },
      "_setInterestRateModel(address)": {
        "notice": "accrues interest and updates the interest rate model using _setInterestRateModelFresh"
      },
      "_setPendingAdmin(address)": {
        "notice": "Begins transfer of admin rights. The newPendingAdmin must call `_acceptAdmin` to finalize the transfer."
      },
      "_setReserveFactor(uint256)": {
        "notice": "accrues interest and sets a new reserve factor for the protocol using _setReserveFactorFresh"
      },
      "accrueInterest()": {
        "notice": "Applies accrued interest to total borrows and reserves"
      },
      "allowance(address,address)": {
        "notice": "Get the current allowance from `owner` for `spender`"
      },
      "approve(address,uint256)": {
        "notice": "Approve `spender` to transfer up to `amount` from `src`"
      },
      "balanceOf(address)": {
        "notice": "Get the token balance of the `owner`"
      },
      "balanceOfUnderlying(address)": {
        "notice": "Get the underlying balance of the `owner`"
      },
      "borrow(uint256)": {
        "notice": "Sender borrows assets from the protocol to their own address"
      },
      "borrowBalanceCurrent(address)": {
        "notice": "Accrue interest to updated borrowIndex and then calculate account's borrow balance using the updated borrowIndex"
      },
      "borrowBalanceStored(address)": {
        "notice": "Return the borrow balance of account based on stored data"
      },
      "borrowNative(uint256)": {
        "notice": "Sender borrows assets from the protocol to their own address"
      },
      "borrowRatePerBlock()": {
        "notice": "Returns the current per-block borrow interest rate for this cToken"
      },
      "constructor": "Construct an empty delegate",
      "estimateBorrowRatePerBlockAfterChange(uint256,bool)": {
        "notice": "Returns the estimated per-block borrow interest rate for this cToken after some change"
      },
      "estimateSupplyRatePerBlockAfterChange(uint256,bool)": {
        "notice": "Returns the estimated per-block supply interest rate for this cToken after some change"
      },
      "exchangeRateCurrent()": {
        "notice": "Accrue interest then return the up-to-date exchange rate"
      },
      "exchangeRateStored()": {
        "notice": "Calculates the exchange rate from the underlying to the CToken"
      },
      "flashFee(address,uint256)": {
        "notice": "Get the flash loan fees"
      },
      "flashLoan(address,address,uint256,bytes)": {
        "notice": "Flash loan funds to a given account."
      },
      "getAccountSnapshot(address)": {
        "notice": "Get a snapshot of the account's balances, and the cached exchange rate"
      },
      "getCash()": {
        "notice": "Get cash balance of this cToken in the underlying asset"
      },
      "initialize(address,address,address,uint256,string,string,uint8)": {
        "notice": "Initialize the new money market"
      },
      "initialize(address,address,uint256,string,string,uint8)": {
        "notice": "Initialize the money market"
      },
      "liquidateBorrow(address,uint256,address)": {
        "notice": "The sender liquidates the borrowers collateral. The collateral seized is transferred to the liquidator."
      },
      "liquidateBorrowNative(address,address)": {
        "notice": "The sender liquidates the borrowers collateral. The collateral seized is transferred to the liquidator."
      },
      "mint(uint256)": {
        "notice": "Sender supplies assets into the market and receives cTokens in exchange"
      },
      "mintNative()": {
        "notice": "Sender supplies assets into the market and receives cTokens in exchange"
      },
      "redeem(uint256)": {
        "notice": "Sender redeems cTokens in exchange for the underlying asset"
      },
      "redeemNative(uint256)": {
        "notice": "Sender redeems cTokens in exchange for the underlying asset"
      },
      "redeemUnderlying(uint256)": {
        "notice": "Sender redeems cTokens in exchange for a specified amount of underlying asset"
      },
      "redeemUnderlyingNative(uint256)": {
        "notice": "Sender redeems cTokens in exchange for a specified amount of underlying asset"
      },
      "repayBorrow(uint256)": {
        "notice": "Sender repays their own borrow"
      },
      "repayBorrowBehalf(address,uint256)": {
        "notice": "Sender repays a borrow belonging to borrower"
      },
      "repayBorrowBehalfNative(address)": {
        "notice": "Sender repays a borrow belonging to borrower"
      },
      "repayBorrowNative()": {
        "notice": "Sender repays their own borrow"
      },
      "seize(address,address,uint256)": {
        "notice": "Transfers collateral tokens (this market) to the liquidator."
      },
      "supplyRatePerBlock()": {
        "notice": "Returns the current per-block supply interest rate for this cToken"
      },
      "totalBorrowsCurrent()": {
        "notice": "Returns the current total borrows plus accrued interest"
      },
      "transfer(address,uint256)": {
        "notice": "Transfer `amount` tokens from `msg.sender` to `dst`"
      },
      "transferFrom(address,address,uint256)": {
        "notice": "Transfer `amount` tokens from `src` to `dst`"
      }
    },
    "notice": "CTokens which wrap an EIP-20 underlying and are delegated to"
  },
  "storageLayout": {
    "storage": [
      {
        "astId": 12029,
        "contract": "contracts/CWrappedNativeDelegate.sol:CWrappedNativeDelegate",
        "label": "_notEntered",
        "offset": 0,
        "slot": "0",
        "type": "t_bool"
      },
      {
        "astId": 12031,
        "contract": "contracts/CWrappedNativeDelegate.sol:CWrappedNativeDelegate",
        "label": "name",
        "offset": 0,
        "slot": "1",
        "type": "t_string_storage"
      },
      {
        "astId": 12033,
        "contract": "contracts/CWrappedNativeDelegate.sol:CWrappedNativeDelegate",
        "label": "symbol",
        "offset": 0,
        "slot": "2",
        "type": "t_string_storage"
      },
      {
        "astId": 12035,
        "contract": "contracts/CWrappedNativeDelegate.sol:CWrappedNativeDelegate",
        "label": "decimals",
        "offset": 0,
        "slot": "3",
        "type": "t_uint8"
      },
      {
        "astId": 12043,
        "contract": "contracts/CWrappedNativeDelegate.sol:CWrappedNativeDelegate",
        "label": "admin",
        "offset": 1,
        "slot": "3",
        "type": "t_address_payable"
      },
      {
        "astId": 12045,
        "contract": "contracts/CWrappedNativeDelegate.sol:CWrappedNativeDelegate",
        "label": "pendingAdmin",
        "offset": 0,
        "slot": "4",
        "type": "t_address_payable"
      },
      {
        "astId": 12047,
        "contract": "contracts/CWrappedNativeDelegate.sol:CWrappedNativeDelegate",
        "label": "comptroller",
        "offset": 0,
        "slot": "5",
        "type": "t_contract(ComptrollerInterface)21398"
      },
      {
        "astId": 12049,
        "contract": "contracts/CWrappedNativeDelegate.sol:CWrappedNativeDelegate",
        "label": "interestRateModel",
        "offset": 0,
        "slot": "6",
        "type": "t_contract(InterestRateModel)24829"
      },
      {
        "astId": 12051,
        "contract": "contracts/CWrappedNativeDelegate.sol:CWrappedNativeDelegate",
        "label": "initialExchangeRateMantissa",
        "offset": 0,
        "slot": "7",
        "type": "t_uint256"
      },
      {
        "astId": 12053,
        "contract": "contracts/CWrappedNativeDelegate.sol:CWrappedNativeDelegate",
        "label": "reserveFactorMantissa",
        "offset": 0,
        "slot": "8",
        "type": "t_uint256"
      },
      {
        "astId": 12055,
        "contract": "contracts/CWrappedNativeDelegate.sol:CWrappedNativeDelegate",
        "label": "accrualBlockNumber",
        "offset": 0,
        "slot": "9",
        "type": "t_uint256"
      },
      {
        "astId": 12057,
        "contract": "contracts/CWrappedNativeDelegate.sol:CWrappedNativeDelegate",
        "label": "borrowIndex",
        "offset": 0,
        "slot": "10",
        "type": "t_uint256"
      },
      {
        "astId": 12059,
        "contract": "contracts/CWrappedNativeDelegate.sol:CWrappedNativeDelegate",
        "label": "totalBorrows",
        "offset": 0,
        "slot": "11",
        "type": "t_uint256"
      },
      {
        "astId": 12061,
        "contract": "contracts/CWrappedNativeDelegate.sol:CWrappedNativeDelegate",
        "label": "totalReserves",
        "offset": 0,
        "slot": "12",
        "type": "t_uint256"
      },
      {
        "astId": 12063,
        "contract": "contracts/CWrappedNativeDelegate.sol:CWrappedNativeDelegate",
        "label": "totalSupply",
        "offset": 0,
        "slot": "13",
        "type": "t_uint256"
      },
      {
        "astId": 12067,
        "contract": "contracts/CWrappedNativeDelegate.sol:CWrappedNativeDelegate",
        "label": "accountTokens",
        "offset": 0,
        "slot": "14",
        "type": "t_mapping(t_address,t_uint256)"
      },
      {
        "astId": 12073,
        "contract": "contracts/CWrappedNativeDelegate.sol:CWrappedNativeDelegate",
        "label": "transferAllowances",
        "offset": 0,
        "slot": "15",
        "type": "t_mapping(t_address,t_mapping(t_address,t_uint256))"
      },
      {
        "astId": 12082,
        "contract": "contracts/CWrappedNativeDelegate.sol:CWrappedNativeDelegate",
        "label": "accountBorrows",
        "offset": 0,
        "slot": "16",
        "type": "t_mapping(t_address,t_struct(BorrowSnapshot)12078_storage)"
      },
      {
        "astId": 12085,
        "contract": "contracts/CWrappedNativeDelegate.sol:CWrappedNativeDelegate",
        "label": "underlying",
        "offset": 0,
        "slot": "17",
        "type": "t_address"
      },
      {
        "astId": 12087,
        "contract": "contracts/CWrappedNativeDelegate.sol:CWrappedNativeDelegate",
        "label": "implementation",
        "offset": 0,
        "slot": "18",
        "type": "t_address"
      }
    ],
    "types": {
      "t_address": {
        "encoding": "inplace",
        "label": "address",
        "numberOfBytes": "20"
      },
      "t_address_payable": {
        "encoding": "inplace",
        "label": "address payable",
        "numberOfBytes": "20"
      },
      "t_bool": {
        "encoding": "inplace",
        "label": "bool",
        "numberOfBytes": "1"
      },
      "t_contract(ComptrollerInterface)21398": {
        "encoding": "inplace",
        "label": "contract ComptrollerInterface",
        "numberOfBytes": "20"
      },
      "t_contract(InterestRateModel)24829": {
        "encoding": "inplace",
        "label": "contract InterestRateModel",
        "numberOfBytes": "20"
      },
      "t_mapping(t_address,t_mapping(t_address,t_uint256))": {
        "encoding": "mapping",
        "key": "t_address",
        "label": "mapping(address => mapping(address => uint256))",
        "numberOfBytes": "32",
        "value": "t_mapping(t_address,t_uint256)"
      },
      "t_mapping(t_address,t_struct(BorrowSnapshot)12078_storage)": {
        "encoding": "mapping",
        "key": "t_address",
        "label": "mapping(address => struct CTokenStorage.BorrowSnapshot)",
        "numberOfBytes": "32",
        "value": "t_struct(BorrowSnapshot)12078_storage"
      },
      "t_mapping(t_address,t_uint256)": {
        "encoding": "mapping",
        "key": "t_address",
        "label": "mapping(address => uint256)",
        "numberOfBytes": "32",
        "value": "t_uint256"
      },
      "t_string_storage": {
        "encoding": "bytes",
        "label": "string",
        "numberOfBytes": "32"
      },
      "t_struct(BorrowSnapshot)12078_storage": {
        "encoding": "inplace",
        "label": "struct CTokenStorage.BorrowSnapshot",
        "members": [
          {
            "astId": 12075,
            "contract": "contracts/CWrappedNativeDelegate.sol:CWrappedNativeDelegate",
            "label": "principal",
            "offset": 0,
            "slot": "0",
            "type": "t_uint256"
          },
          {
            "astId": 12077,
            "contract": "contracts/CWrappedNativeDelegate.sol:CWrappedNativeDelegate",
            "label": "interestIndex",
            "offset": 0,
            "slot": "1",
            "type": "t_uint256"
          }
        ],
        "numberOfBytes": "64"
      },
      "t_uint256": {
        "encoding": "inplace",
        "label": "uint256",
        "numberOfBytes": "32"
      },
      "t_uint8": {
        "encoding": "inplace",
        "label": "uint8",
        "numberOfBytes": "1"
      }
    }
  }
}