{
  "address": "0xa7d69D32870AC424fd112d0ba436b1f662408779",
  "abi": [
    {
      "inputs": [
        {
          "internalType": "uint256",
          "name": "total",
          "type": "uint256"
        },
        {
          "internalType": "string",
          "name": "_name",
          "type": "string"
        },
        {
          "internalType": "string",
          "name": "_symbol",
          "type": "string"
        },
        {
          "internalType": "uint8",
          "name": "_decimals",
          "type": "uint8"
        }
      ],
      "payable": false,
      "stateMutability": "nonpayable",
      "type": "constructor"
    },
    {
      "anonymous": false,
      "inputs": [
        {
          "indexed": true,
          "internalType": "address",
          "name": "tokenOwner",
          "type": "address"
        },
        {
          "indexed": true,
          "internalType": "address",
          "name": "spender",
          "type": "address"
        },
        {
          "indexed": false,
          "internalType": "uint256",
          "name": "tokens",
          "type": "uint256"
        }
      ],
      "name": "Approval",
      "type": "event"
    },
    {
      "anonymous": false,
      "inputs": [
        {
          "indexed": true,
          "internalType": "address",
          "name": "from",
          "type": "address"
        },
        {
          "indexed": true,
          "internalType": "address",
          "name": "to",
          "type": "address"
        },
        {
          "indexed": false,
          "internalType": "uint256",
          "name": "tokens",
          "type": "uint256"
        }
      ],
      "name": "Transfer",
      "type": "event"
    },
    {
      "constant": true,
      "inputs": [
        {
          "internalType": "address",
          "name": "owner",
          "type": "address"
        },
        {
          "internalType": "address",
          "name": "delegate",
          "type": "address"
        }
      ],
      "name": "allowance",
      "outputs": [
        {
          "internalType": "uint256",
          "name": "",
          "type": "uint256"
        }
      ],
      "payable": false,
      "stateMutability": "view",
      "type": "function"
    },
    {
      "constant": false,
      "inputs": [
        {
          "internalType": "address",
          "name": "delegate",
          "type": "address"
        },
        {
          "internalType": "uint256",
          "name": "numTokens",
          "type": "uint256"
        }
      ],
      "name": "approve",
      "outputs": [
        {
          "internalType": "bool",
          "name": "",
          "type": "bool"
        }
      ],
      "payable": false,
      "stateMutability": "nonpayable",
      "type": "function"
    },
    {
      "constant": true,
      "inputs": [
        {
          "internalType": "address",
          "name": "tokenOwner",
          "type": "address"
        }
      ],
      "name": "balanceOf",
      "outputs": [
        {
          "internalType": "uint256",
          "name": "",
          "type": "uint256"
        }
      ],
      "payable": false,
      "stateMutability": "view",
      "type": "function"
    },
    {
      "constant": true,
      "inputs": [],
      "name": "decimals",
      "outputs": [
        {
          "internalType": "uint8",
          "name": "",
          "type": "uint8"
        }
      ],
      "payable": false,
      "stateMutability": "view",
      "type": "function"
    },
    {
      "constant": false,
      "inputs": [
        {
          "internalType": "address",
          "name": "to",
          "type": "address"
        }
      ],
      "name": "mint100",
      "outputs": [],
      "payable": false,
      "stateMutability": "nonpayable",
      "type": "function"
    },
    {
      "constant": true,
      "inputs": [],
      "name": "name",
      "outputs": [
        {
          "internalType": "string",
          "name": "",
          "type": "string"
        }
      ],
      "payable": false,
      "stateMutability": "view",
      "type": "function"
    },
    {
      "constant": true,
      "inputs": [],
      "name": "symbol",
      "outputs": [
        {
          "internalType": "string",
          "name": "",
          "type": "string"
        }
      ],
      "payable": false,
      "stateMutability": "view",
      "type": "function"
    },
    {
      "constant": true,
      "inputs": [],
      "name": "totalSupply",
      "outputs": [
        {
          "internalType": "uint256",
          "name": "",
          "type": "uint256"
        }
      ],
      "payable": false,
      "stateMutability": "view",
      "type": "function"
    },
    {
      "constant": false,
      "inputs": [
        {
          "internalType": "address",
          "name": "receiver",
          "type": "address"
        },
        {
          "internalType": "uint256",
          "name": "numTokens",
          "type": "uint256"
        }
      ],
      "name": "transfer",
      "outputs": [
        {
          "internalType": "bool",
          "name": "",
          "type": "bool"
        }
      ],
      "payable": false,
      "stateMutability": "nonpayable",
      "type": "function"
    },
    {
      "constant": false,
      "inputs": [
        {
          "internalType": "address",
          "name": "owner",
          "type": "address"
        },
        {
          "internalType": "address",
          "name": "buyer",
          "type": "address"
        },
        {
          "internalType": "uint256",
          "name": "numTokens",
          "type": "uint256"
        }
      ],
      "name": "transferFrom",
      "outputs": [
        {
          "internalType": "bool",
          "name": "",
          "type": "bool"
        }
      ],
      "payable": false,
      "stateMutability": "nonpayable",
      "type": "function"
    }
  ],
  "transactionHash": "0x5b821133376b15773d48eee2600eb66c63329cb59aafa9b93692e294e1133be8",
  "args": [
    "1000000000000",
    "Gravity USDC",
    "gUSDC",
    "6"
  ],
  "solcInputHash": "93f81fc06aee20fb506e35e32de46289",
  "bytecode": "0x60c0604052600a6080819052694552433230426173696360b01b60a090815261002b9160009190610257565b50604080518082019091526004808252635553444360e01b602090920191825261005791600191610257565b506002805460ff1916600617905534801561007157600080fd5b506040516109df3803806109df8339818101604052608081101561009457600080fd5b8151602083018051604051929492938301929190846401000000008211156100bb57600080fd5b9083019060208201858111156100d057600080fd5b82516401000000008111828201881017156100ea57600080fd5b82525081516020918201929091019080838360005b838110156101175781810151838201526020016100ff565b50505050905090810190601f1680156101445780820380516001836020036101000a031916815260200191505b506040526020018051604051939291908464010000000082111561016757600080fd5b90830190602082018581111561017c57600080fd5b825164010000000081118282018810171561019657600080fd5b82525081516020918201929091019080838360005b838110156101c35781810151838201526020016101ab565b50505050905090810190601f1680156101f05780820380516001836020036101000a031916815260200191505b506040908152602091820151600588905533600090815260038452918220889055865190945061022593509091860190610257565b508151610239906001906020850190610257565b506002805460ff191660ff92909216919091179055506102f2915050565b828054600181600116156101000203166002900490600052602060002090601f016020900481019282601f1061029857805160ff19168380011785556102c5565b828001600101855582156102c5579182015b828111156102c55782518255916020019190600101906102aa565b506102d19291506102d5565b5090565b6102ef91905b808211156102d157600081556001016102db565b90565b6106de806103016000396000f3fe608060405234801561001057600080fd5b506004361061008e5760003560e01c806306fdde0314610093578063095ea7b31461011057806315a80afe1461015057806318160ddd1461017857806323b872dd14610192578063313ce567146101c857806370a08231146101e657806395d89b411461020c578063a9059cbb14610214578063dd62ed3e14610240575b600080fd5b61009b61026e565b6040805160208082528351818301528351919283929083019185019080838360005b838110156100d55781810151838201526020016100bd565b50505050905090810190601f1680156101025780820380516001836020036101000a031916815260200191505b509250505060405180910390f35b61013c6004803603604081101561012657600080fd5b506001600160a01b0381351690602001356102fc565b604080519115158252519081900360200190f35b6101766004803603602081101561016657600080fd5b50356001600160a01b0316610362565b005b6101806103aa565b60408051918252519081900360200190f35b61013c600480360360608110156101a857600080fd5b506001600160a01b038135811691602081013590911690604001356103b0565b6101d06104fe565b6040805160ff9092168252519081900360200190f35b610180600480360360208110156101fc57600080fd5b50356001600160a01b0316610507565b61009b610522565b61013c6004803603604081101561022a57600080fd5b506001600160a01b03813516906020013561057c565b6101806004803603604081101561025657600080fd5b506001600160a01b0381358116916020013516610636565b6000805460408051602060026001851615610100026000190190941693909304601f810184900484028201840190925281815292918301828280156102f45780601f106102c9576101008083540402835291602001916102f4565b820191906000526020600020905b8154815290600101906020018083116102d757829003601f168201915b505050505081565b3360008181526004602090815260408083206001600160a01b038716808552908352818420869055815186815291519394909390927f8c5be1e5ebec7d5bd14f71427d1e84f3dd0314c0f7b2291e5b200ac8c7c3b925928290030190a350600192915050565b600280546001600160a01b03929092166000908152600360205260409020805460ff938416606490810a851690910190915590546005805491841690920a9092169091019055565b60055490565b6001600160a01b0383166000908152600360205260408120548211156103d557600080fd5b6001600160a01b038416600090815260046020908152604080832033845290915290205482111561040557600080fd5b6001600160a01b03841660009081526003602052604090205461042e908363ffffffff61066116565b6001600160a01b038516600090815260036020908152604080832093909355600481528282203383529052205461046b908363ffffffff61066116565b6001600160a01b0380861660009081526004602090815260408083203384528252808320949094559186168152600390915220546104af908363ffffffff61067316565b6001600160a01b03808516600081815260036020908152604091829020949094558051868152905191939288169260008051602061068a83398151915292918290030190a35060019392505050565b60025460ff1681565b6001600160a01b031660009081526003602052604090205490565b60018054604080516020600284861615610100026000190190941693909304601f810184900484028201840190925281815292918301828280156102f45780601f106102c9576101008083540402835291602001916102f4565b3360009081526003602052604081205482111561059857600080fd5b336000908152600360205260409020546105b8908363ffffffff61066116565b33600090815260036020526040808220929092556001600160a01b038516815220546105ea908363ffffffff61067316565b6001600160a01b03841660008181526003602090815260409182902093909355805185815290519192339260008051602061068a8339815191529281900390910190a350600192915050565b6001600160a01b03918216600090815260046020908152604080832093909416825291909152205490565b60008282111561066d57fe5b50900390565b60008282018381101561068257fe5b939250505056feddf252ad1be2c89b69c2b068fc378daa952ba7f163c4a11628f55a4df523b3efa265627a7a72315820c58a21f41492496330a3f0b099d551b5a111fe823d8e09936a4b3806f6d2aee664736f6c63430005100032",
  "devdoc": {
    "methods": {}
  },
  "userdoc": {
    "methods": {}
  },
  "storageLayout": {
    "storage": [
      {
        "astId": 4,
        "contract": "contracts/GenericERC20.sol:GenericERC20",
        "label": "name",
        "offset": 0,
        "slot": "0",
        "type": "t_string_storage"
      },
      {
        "astId": 7,
        "contract": "contracts/GenericERC20.sol:GenericERC20",
        "label": "symbol",
        "offset": 0,
        "slot": "1",
        "type": "t_string_storage"
      },
      {
        "astId": 10,
        "contract": "contracts/GenericERC20.sol:GenericERC20",
        "label": "decimals",
        "offset": 0,
        "slot": "2",
        "type": "t_uint8"
      },
      {
        "astId": 30,
        "contract": "contracts/GenericERC20.sol:GenericERC20",
        "label": "balances",
        "offset": 0,
        "slot": "3",
        "type": "t_mapping(t_address,t_uint256)"
      },
      {
        "astId": 36,
        "contract": "contracts/GenericERC20.sol:GenericERC20",
        "label": "allowed",
        "offset": 0,
        "slot": "4",
        "type": "t_mapping(t_address,t_mapping(t_address,t_uint256))"
      },
      {
        "astId": 38,
        "contract": "contracts/GenericERC20.sol:GenericERC20",
        "label": "totalSupply_",
        "offset": 0,
        "slot": "5",
        "type": "t_uint256"
      }
    ],
    "types": {
      "t_address": {
        "encoding": "inplace",
        "label": "address",
        "numberOfBytes": "20"
      },
      "t_mapping(t_address,t_mapping(t_address,t_uint256))": {
        "encoding": "mapping",
        "key": "t_address",
        "label": "mapping(address => mapping(address => uint256))",
        "numberOfBytes": "32",
        "value": "t_mapping(t_address,t_uint256)"
      },
      "t_mapping(t_address,t_uint256)": {
        "encoding": "mapping",
        "key": "t_address",
        "label": "mapping(address => uint256)",
        "numberOfBytes": "32",
        "value": "t_uint256"
      },
      "t_string_storage": {
        "encoding": "bytes",
        "label": "string",
        "numberOfBytes": "32"
      },
      "t_uint256": {
        "encoding": "inplace",
        "label": "uint256",
        "numberOfBytes": "32"
      },
      "t_uint8": {
        "encoding": "inplace",
        "label": "uint8",
        "numberOfBytes": "1"
      }
    }
  }
}