{
  "address": "0x446E7fCC3B01b07b955021B675feD9d3eBdfcE82",
  "abi": [
    {
      "inputs": [
        {
          "internalType": "uint256",
          "name": "total",
          "type": "uint256"
        },
        {
          "internalType": "string",
          "name": "_name",
          "type": "string"
        },
        {
          "internalType": "string",
          "name": "_symbol",
          "type": "string"
        },
        {
          "internalType": "uint8",
          "name": "_decimals",
          "type": "uint8"
        }
      ],
      "payable": false,
      "stateMutability": "nonpayable",
      "type": "constructor"
    },
    {
      "anonymous": false,
      "inputs": [
        {
          "indexed": true,
          "internalType": "address",
          "name": "tokenOwner",
          "type": "address"
        },
        {
          "indexed": true,
          "internalType": "address",
          "name": "spender",
          "type": "address"
        },
        {
          "indexed": false,
          "internalType": "uint256",
          "name": "tokens",
          "type": "uint256"
        }
      ],
      "name": "Approval",
      "type": "event"
    },
    {
      "anonymous": false,
      "inputs": [
        {
          "indexed": true,
          "internalType": "address",
          "name": "from",
          "type": "address"
        },
        {
          "indexed": true,
          "internalType": "address",
          "name": "to",
          "type": "address"
        },
        {
          "indexed": false,
          "internalType": "uint256",
          "name": "tokens",
          "type": "uint256"
        }
      ],
      "name": "Transfer",
      "type": "event"
    },
    {
      "constant": true,
      "inputs": [
        {
          "internalType": "address",
          "name": "owner",
          "type": "address"
        },
        {
          "internalType": "address",
          "name": "delegate",
          "type": "address"
        }
      ],
      "name": "allowance",
      "outputs": [
        {
          "internalType": "uint256",
          "name": "",
          "type": "uint256"
        }
      ],
      "payable": false,
      "stateMutability": "view",
      "type": "function"
    },
    {
      "constant": false,
      "inputs": [
        {
          "internalType": "address",
          "name": "delegate",
          "type": "address"
        },
        {
          "internalType": "uint256",
          "name": "numTokens",
          "type": "uint256"
        }
      ],
      "name": "approve",
      "outputs": [
        {
          "internalType": "bool",
          "name": "",
          "type": "bool"
        }
      ],
      "payable": false,
      "stateMutability": "nonpayable",
      "type": "function"
    },
    {
      "constant": true,
      "inputs": [
        {
          "internalType": "address",
          "name": "tokenOwner",
          "type": "address"
        }
      ],
      "name": "balanceOf",
      "outputs": [
        {
          "internalType": "uint256",
          "name": "",
          "type": "uint256"
        }
      ],
      "payable": false,
      "stateMutability": "view",
      "type": "function"
    },
    {
      "constant": true,
      "inputs": [],
      "name": "decimals",
      "outputs": [
        {
          "internalType": "uint8",
          "name": "",
          "type": "uint8"
        }
      ],
      "payable": false,
      "stateMutability": "view",
      "type": "function"
    },
    {
      "constant": false,
      "inputs": [
        {
          "internalType": "address",
          "name": "to",
          "type": "address"
        },
        {
          "internalType": "uint256",
          "name": "numTokens",
          "type": "uint256"
        }
      ],
      "name": "mintTokens",
      "outputs": [],
      "payable": false,
      "stateMutability": "nonpayable",
      "type": "function"
    },
    {
      "constant": true,
      "inputs": [],
      "name": "name",
      "outputs": [
        {
          "internalType": "string",
          "name": "",
          "type": "string"
        }
      ],
      "payable": false,
      "stateMutability": "view",
      "type": "function"
    },
    {
      "constant": true,
      "inputs": [],
      "name": "symbol",
      "outputs": [
        {
          "internalType": "string",
          "name": "",
          "type": "string"
        }
      ],
      "payable": false,
      "stateMutability": "view",
      "type": "function"
    },
    {
      "constant": true,
      "inputs": [],
      "name": "totalSupply",
      "outputs": [
        {
          "internalType": "uint256",
          "name": "",
          "type": "uint256"
        }
      ],
      "payable": false,
      "stateMutability": "view",
      "type": "function"
    },
    {
      "constant": false,
      "inputs": [
        {
          "internalType": "address",
          "name": "receiver",
          "type": "address"
        },
        {
          "internalType": "uint256",
          "name": "numTokens",
          "type": "uint256"
        }
      ],
      "name": "transfer",
      "outputs": [
        {
          "internalType": "bool",
          "name": "",
          "type": "bool"
        }
      ],
      "payable": false,
      "stateMutability": "nonpayable",
      "type": "function"
    },
    {
      "constant": false,
      "inputs": [
        {
          "internalType": "address",
          "name": "owner",
          "type": "address"
        },
        {
          "internalType": "address",
          "name": "buyer",
          "type": "address"
        },
        {
          "internalType": "uint256",
          "name": "numTokens",
          "type": "uint256"
        }
      ],
      "name": "transferFrom",
      "outputs": [
        {
          "internalType": "bool",
          "name": "",
          "type": "bool"
        }
      ],
      "payable": false,
      "stateMutability": "nonpayable",
      "type": "function"
    }
  ],
  "transactionHash": "0x81f161ec3b3969e96e9aa10816488e8fa58085e5dd907cbadee9d804efd202c1",
  "args": [
    "10000000000000000000000000",
    "Juno",
    "JUNO",
    "18"
  ],
  "solcInputHash": "a2d511c5ffc89afe311d5fef9098a4da",
  "bytecode": "0x60c0604052600a6080819052694552433230426173696360b01b60a090815261002b9160009190610257565b50604080518082019091526004808252635553444360e01b602090920191825261005791600191610257565b506002805460ff1916600617905534801561007157600080fd5b506040516109c73803806109c78339818101604052608081101561009457600080fd5b8151602083018051604051929492938301929190846401000000008211156100bb57600080fd5b9083019060208201858111156100d057600080fd5b82516401000000008111828201881017156100ea57600080fd5b82525081516020918201929091019080838360005b838110156101175781810151838201526020016100ff565b50505050905090810190601f1680156101445780820380516001836020036101000a031916815260200191505b506040526020018051604051939291908464010000000082111561016757600080fd5b90830190602082018581111561017c57600080fd5b825164010000000081118282018810171561019657600080fd5b82525081516020918201929091019080838360005b838110156101c35781810151838201526020016101ab565b50505050905090810190601f1680156101f05780820380516001836020036101000a031916815260200191505b506040908152602091820151600588905533600090815260038452918220889055865190945061022593509091860190610257565b508151610239906001906020850190610257565b506002805460ff191660ff92909216919091179055506102f2915050565b828054600181600116156101000203166002900490600052602060002090601f016020900481019282601f1061029857805160ff19168380011785556102c5565b828001600101855582156102c5579182015b828111156102c55782518255916020019190600101906102aa565b506102d19291506102d5565b5090565b6102ef91905b808211156102d157600081556001016102db565b90565b6106c6806103016000396000f3fe608060405234801561001057600080fd5b506004361061008e5760003560e01c806306fdde0314610093578063095ea7b31461011057806318160ddd1461015057806323b872dd1461016a578063313ce567146101a057806370a08231146101be57806395d89b41146101e4578063a9059cbb146101ec578063dd62ed3e14610218578063f0dda65c14610246575b600080fd5b61009b610274565b6040805160208082528351818301528351919283929083019185019080838360005b838110156100d55781810151838201526020016100bd565b50505050905090810190601f1680156101025780820380516001836020036101000a031916815260200191505b509250505060405180910390f35b61013c6004803603604081101561012657600080fd5b506001600160a01b038135169060200135610302565b604080519115158252519081900360200190f35b610158610368565b60408051918252519081900360200190f35b61013c6004803603606081101561018057600080fd5b506001600160a01b0381358116916020810135909116906040013561036e565b6101a86104bc565b6040805160ff9092168252519081900360200190f35b610158600480360360208110156101d457600080fd5b50356001600160a01b03166104c5565b61009b6104e0565b61013c6004803603604081101561020257600080fd5b506001600160a01b03813516906020013561053a565b6101586004803603604081101561022e57600080fd5b506001600160a01b03813581169160200135166105f4565b6102726004803603604081101561025c57600080fd5b506001600160a01b03813516906020013561061f565b005b6000805460408051602060026001851615610100026000190190941693909304601f810184900484028201840190925281815292918301828280156102fa5780601f106102cf576101008083540402835291602001916102fa565b820191906000526020600020905b8154815290600101906020018083116102dd57829003601f168201915b505050505081565b3360008181526004602090815260408083206001600160a01b038716808552908352818420869055815186815291519394909390927f8c5be1e5ebec7d5bd14f71427d1e84f3dd0314c0f7b2291e5b200ac8c7c3b925928290030190a350600192915050565b60055490565b6001600160a01b03831660009081526003602052604081205482111561039357600080fd5b6001600160a01b03841660009081526004602090815260408083203384529091529020548211156103c357600080fd5b6001600160a01b0384166000908152600360205260409020546103ec908363ffffffff61064916565b6001600160a01b0385166000908152600360209081526040808320939093556004815282822033835290522054610429908363ffffffff61064916565b6001600160a01b03808616600090815260046020908152604080832033845282528083209490945591861681526003909152205461046d908363ffffffff61065b16565b6001600160a01b03808516600081815260036020908152604091829020949094558051868152905191939288169260008051602061067283398151915292918290030190a35060019392505050565b60025460ff1681565b6001600160a01b031660009081526003602052604090205490565b60018054604080516020600284861615610100026000190190941693909304601f810184900484028201840190925281815292918301828280156102fa5780601f106102cf576101008083540402835291602001916102fa565b3360009081526003602052604081205482111561055657600080fd5b33600090815260036020526040902054610576908363ffffffff61064916565b33600090815260036020526040808220929092556001600160a01b038516815220546105a8908363ffffffff61065b16565b6001600160a01b0384166000818152600360209081526040918290209390935580518581529051919233926000805160206106728339815191529281900390910190a350600192915050565b6001600160a01b03918216600090815260046020908152604080832093909416825291909152205490565b6001600160a01b039091166000908152600360205260409020805482019055600580549091019055565b60008282111561065557fe5b50900390565b60008282018381101561066a57fe5b939250505056feddf252ad1be2c89b69c2b068fc378daa952ba7f163c4a11628f55a4df523b3efa265627a7a723158205bc78c009c6bb2fe0fdde64ad735fbd3e025bbe6e993f2d56295c6360448cae664736f6c63430005100032",
  "devdoc": {
    "methods": {}
  },
  "userdoc": {
    "methods": {}
  },
  "storageLayout": {
    "storage": [
      {
        "astId": 4,
        "contract": "contracts/GenericERC20.sol:GenericERC20",
        "label": "name",
        "offset": 0,
        "slot": "0",
        "type": "t_string_storage"
      },
      {
        "astId": 7,
        "contract": "contracts/GenericERC20.sol:GenericERC20",
        "label": "symbol",
        "offset": 0,
        "slot": "1",
        "type": "t_string_storage"
      },
      {
        "astId": 10,
        "contract": "contracts/GenericERC20.sol:GenericERC20",
        "label": "decimals",
        "offset": 0,
        "slot": "2",
        "type": "t_uint8"
      },
      {
        "astId": 30,
        "contract": "contracts/GenericERC20.sol:GenericERC20",
        "label": "balances",
        "offset": 0,
        "slot": "3",
        "type": "t_mapping(t_address,t_uint256)"
      },
      {
        "astId": 36,
        "contract": "contracts/GenericERC20.sol:GenericERC20",
        "label": "allowed",
        "offset": 0,
        "slot": "4",
        "type": "t_mapping(t_address,t_mapping(t_address,t_uint256))"
      },
      {
        "astId": 38,
        "contract": "contracts/GenericERC20.sol:GenericERC20",
        "label": "totalSupply_",
        "offset": 0,
        "slot": "5",
        "type": "t_uint256"
      }
    ],
    "types": {
      "t_address": {
        "encoding": "inplace",
        "label": "address",
        "numberOfBytes": "20"
      },
      "t_mapping(t_address,t_mapping(t_address,t_uint256))": {
        "encoding": "mapping",
        "key": "t_address",
        "label": "mapping(address => mapping(address => uint256))",
        "numberOfBytes": "32",
        "value": "t_mapping(t_address,t_uint256)"
      },
      "t_mapping(t_address,t_uint256)": {
        "encoding": "mapping",
        "key": "t_address",
        "label": "mapping(address => uint256)",
        "numberOfBytes": "32",
        "value": "t_uint256"
      },
      "t_string_storage": {
        "encoding": "bytes",
        "label": "string",
        "numberOfBytes": "32"
      },
      "t_uint256": {
        "encoding": "inplace",
        "label": "uint256",
        "numberOfBytes": "32"
      },
      "t_uint8": {
        "encoding": "inplace",
        "label": "uint8",
        "numberOfBytes": "1"
      }
    }
  }
}